{
  "contractName": "DesignatedVoting",
  "abi": [
    {
      "inputs": [
        {
          "internalType": "address",
          "name": "finderAddress",
          "type": "address"
        }
      ],
      "payable": false,
      "stateMutability": "nonpayable",
      "type": "constructor"
    },
    {
      "constant": false,
      "inputs": [
        {
          "internalType": "uint256",
          "name": "roleId",
          "type": "uint256"
        },
        {
          "internalType": "address",
          "name": "newMember",
          "type": "address"
        }
      ],
      "name": "addMember",
      "outputs": [],
      "payable": false,
      "stateMutability": "nonpayable",
      "type": "function"
    },
    {
      "constant": true,
      "inputs": [
        {
          "internalType": "uint256",
          "name": "roleId",
          "type": "uint256"
        }
      ],
      "name": "getMember",
      "outputs": [
        {
          "internalType": "address",
          "name": "",
          "type": "address"
        }
      ],
      "payable": false,
      "stateMutability": "view",
      "type": "function"
    },
    {
      "constant": true,
      "inputs": [
        {
          "internalType": "uint256",
          "name": "roleId",
          "type": "uint256"
        },
        {
          "internalType": "address",
          "name": "memberToCheck",
          "type": "address"
        }
      ],
      "name": "holdsRole",
      "outputs": [
        {
          "internalType": "bool",
          "name": "",
          "type": "bool"
        }
      ],
      "payable": false,
      "stateMutability": "view",
      "type": "function"
    },
    {
      "constant": false,
      "inputs": [
        {
          "internalType": "uint256",
          "name": "roleId",
          "type": "uint256"
        },
        {
          "internalType": "address",
          "name": "memberToRemove",
          "type": "address"
        }
      ],
      "name": "removeMember",
      "outputs": [],
      "payable": false,
      "stateMutability": "nonpayable",
      "type": "function"
    },
    {
      "constant": false,
      "inputs": [
        {
          "internalType": "uint256",
          "name": "roleId",
          "type": "uint256"
        },
        {
          "internalType": "address",
          "name": "newMember",
          "type": "address"
        }
      ],
      "name": "resetMember",
      "outputs": [],
      "payable": false,
      "stateMutability": "nonpayable",
      "type": "function"
    },
    {
      "constant": false,
      "inputs": [
        {
          "internalType": "uint256",
          "name": "amount",
          "type": "uint256"
        }
      ],
      "name": "withdraw",
      "outputs": [],
      "payable": false,
      "stateMutability": "nonpayable",
      "type": "function"
    },
    {
      "constant": false,
      "inputs": [
        {
          "internalType": "address",
          "name": "erc20Address",
          "type": "address"
        },
        {
          "internalType": "uint256",
          "name": "amount",
          "type": "uint256"
        }
      ],
      "name": "withdrawErc20",
      "outputs": [],
      "payable": false,
      "stateMutability": "nonpayable",
      "type": "function"
    },
    {
      "constant": false,
      "inputs": [
        {
          "internalType": "bytes32",
          "name": "identifier",
          "type": "bytes32"
        },
        {
          "internalType": "uint256",
          "name": "time",
          "type": "uint256"
        },
        {
          "internalType": "bytes32",
          "name": "hash",
          "type": "bytes32"
        }
      ],
      "name": "commitVote",
      "outputs": [],
      "payable": false,
      "stateMutability": "nonpayable",
      "type": "function"
    },
    {
      "constant": false,
      "inputs": [
        {
          "internalType": "bytes32",
          "name": "identifier",
          "type": "bytes32"
        },
        {
          "internalType": "uint256",
          "name": "time",
          "type": "uint256"
        },
        {
          "internalType": "int256",
          "name": "price",
          "type": "int256"
        },
        {
          "internalType": "int256",
          "name": "salt",
          "type": "int256"
        }
      ],
      "name": "revealVote",
      "outputs": [],
      "payable": false,
      "stateMutability": "nonpayable",
      "type": "function"
    },
    {
      "constant": false,
      "inputs": [
        {
          "internalType": "uint256",
          "name": "roundId",
          "type": "uint256"
        },
        {
          "components": [
            {
              "internalType": "bytes32",
              "name": "identifier",
              "type": "bytes32"
            },
            {
              "internalType": "uint256",
              "name": "time",
              "type": "uint256"
            }
          ],
          "internalType": "struct VotingInterface.PendingRequest[]",
          "name": "toRetrieve",
          "type": "tuple[]"
        }
      ],
      "name": "retrieveRewards",
      "outputs": [],
      "payable": false,
      "stateMutability": "nonpayable",
      "type": "function"
    }
  ],
  "bytecode": "0x60806040523480156200001157600080fd5b5060405162001d9b38038062001d9b833981810160405262000037919081019062000353565b62000064600060018111156200004957fe5b600060018111156200005757fe5b33620000f660201b60201c565b620000906001808111156200007557fe5b600060018111156200008357fe5b33620000f660201b60201c565b620000ae60006001811115620000a257fe5b6200026260201b60201c565b80600260006101000a81548173ffffffffffffffffffffffffffffffffffffffff021916908373ffffffffffffffffffffffffffffffffffffffff1602179055505062000556565b82600060028111156200010557fe5b60008083815260200190815260200160002060010160009054906101000a900460ff1660028111156200013457fe5b1462000177576040517f08c379a00000000000000000000000000000000000000000000000000000000081526004016200016e90620004b3565b60405180910390fd5b6000806000868152602001908152602001600020905060018160010160006101000a81548160ff02191690836002811115620001af57fe5b0217905550838160000181905550620001da83826002016200026c60201b620017e41790919060201c565b60006002811115620001e857fe5b60008086815260200190815260200160002060010160009054906101000a900460ff1660028111156200021757fe5b14156200025b576040517f08c379a0000000000000000000000000000000000000000000000000000000008152600401620002529062000491565b60405180910390fd5b5050505050565b8060018190555050565b6200027e82826200028260201b60201c565b5050565b600073ffffffffffffffffffffffffffffffffffffffff168173ffffffffffffffffffffffffffffffffffffffff161415620002f5576040517f08c379a0000000000000000000000000000000000000000000000000000000008152600401620002ec90620004d5565b60405180910390fd5b808260000160006101000a81548173ffffffffffffffffffffffffffffffffffffffff021916908373ffffffffffffffffffffffffffffffffffffffff1602179055505050565b6000815190506200034d816200053c565b92915050565b6000602082840312156200036657600080fd5b600062000376848285016200033c565b91505092915050565b60006200038e603c83620004f7565b91507f417474656d7074656420746f2075736520616e20696e76616c696420726f6c6560008301527f20746f206d616e61676520616e206578636c757369766520726f6c65000000006020830152604082019050919050565b6000620003f6601e83620004f7565b91507f43616e6e6f74207573652061207072652d6578697374696e6720726f6c6500006000830152602082019050919050565b600062000438602383620004f7565b91507f43616e6e6f742073657420616e206578636c757369766520726f6c6520746f2060008301527f30783000000000000000000000000000000000000000000000000000000000006020830152604082019050919050565b60006020820190508181036000830152620004ac816200037f565b9050919050565b60006020820190508181036000830152620004ce81620003e7565b9050919050565b60006020820190508181036000830152620004f08162000429565b9050919050565b600082825260208201905092915050565b600062000515826200051c565b9050919050565b600073ffffffffffffffffffffffffffffffffffffffff82169050919050565b620005478162000508565b81146200055357600080fd5b50565b61183580620005666000396000f3fe608060405234801561001057600080fd5b506004361061009e5760003560e01c80637cdc1cb9116100665780637cdc1cb91461012f578063ab3545e51461015f578063bd1f4b521461018f578063d8651ad0146101ab578063d97c05be146101c75761009e565b80632e1a7d4d146100a35780633756a796146100bf5780634c7a2603146100db5780636be7658b146100f757806374d0a67614610113575b600080fd5b6100bd60048036036100b89190810190611022565b6101e3565b005b6100d960048036036100d49190810190611087565b61027a565b005b6100f560048036036100f09190810190610fbf565b610348565b005b610111600480360361010c919081019061104b565b61041c565b005b61012d6004803603610128919081019061104b565b610523565b005b6101496004803603610144919081019061104b565b61062a565b60405161015691906114a0565b60405180910390f35b61017960048036036101749190810190611022565b610725565b604051610186919061145c565b60405180910390f35b6101a960048036036101a49190810190610f0b565b6107c8565b005b6101c560048036036101c09190810190610f70565b6108b5565b005b6101e160048036036101dc919081019061104b565b610986565b005b6001546101f0813361062a565b61022f576040517f08c379a000000000000000000000000000000000000000000000000000000000815260040161022690611590565b60405180910390fd5b3373ffffffffffffffffffffffffffffffffffffffff166108fc839081150290604051600060405180830381858888f19350505050158015610275573d6000803e3d6000fd5b505050565b60018081111561028657fe5b610290813361062a565b6102cf576040517f08c379a00000000000000000000000000000000000000000000000000000000081526004016102c690611590565b60405180910390fd5b6102d7610a8e565b73ffffffffffffffffffffffffffffffffffffffff16633756a79684846040518363ffffffff1660e01b8152600401610311929190611610565b600060405180830381600087803b15801561032b57600080fd5b505af115801561033f573d6000803e3d6000fd5b50505050505050565b60018081111561035457fe5b61035e813361062a565b61039d576040517f08c379a000000000000000000000000000000000000000000000000000000000815260040161039490611590565b60405180910390fd5b6103a5610a8e565b73ffffffffffffffffffffffffffffffffffffffff16634c7a2603868686866040518563ffffffff1660e01b81526004016103e394939291906114f2565b600060405180830381600087803b1580156103fd57600080fd5b505af1158015610411573d6000803e3d6000fd5b505050505050505050565b8160028081111561042957fe5b60008083815260200190815260200160002060010160009054906101000a900460ff16600281111561045757fe5b14610497576040517f08c379a000000000000000000000000000000000000000000000000000000000815260040161048e90611570565b60405180910390fd5b826104b7600080838152602001908152602001600020600001543361062a565b6104f6576040517f08c379a00000000000000000000000000000000000000000000000000000000081526004016104ed906115d0565b60405180910390fd5b61051d83600080878152602001908152602001600020600301610b3e90919063ffffffff16565b50505050565b8160028081111561053057fe5b60008083815260200190815260200160002060010160009054906101000a900460ff16600281111561055e57fe5b1461059e576040517f08c379a000000000000000000000000000000000000000000000000000000000815260040161059590611570565b60405180910390fd5b826105be600080838152602001908152602001600020600001543361062a565b6105fd576040517f08c379a00000000000000000000000000000000000000000000000000000000081526004016105f4906115d0565b60405180910390fd5b61062483600080878152602001908152602001600020600301610b9c90919063ffffffff16565b50505050565b60008060008085815260200190815260200160002090506001600281111561064e57fe5b8160010160009054906101000a900460ff16600281111561066b57fe5b141561068f576106878382600201610bfa90919063ffffffff16565b91505061071f565b60028081111561069b57fe5b8160010160009054906101000a900460ff1660028111156106b857fe5b14156106dc576106d48382600301610c5790919063ffffffff16565b91505061071f565b600061071d576040517f08c379a0000000000000000000000000000000000000000000000000000000008152600401610714906115f0565b60405180910390fd5b505b92915050565b6000816001600281111561073557fe5b60008083815260200190815260200160002060010160009054906101000a900460ff16600281111561076357fe5b146107a3576040517f08c379a000000000000000000000000000000000000000000000000000000000815260040161079a90611550565b60405180910390fd5b6107c0600080858152602001908152602001600020600201610cb0565b915050919050565b6001546107d5813361062a565b610814576040517f08c379a000000000000000000000000000000000000000000000000000000000815260040161080b90611590565b60405180910390fd5b60008390508073ffffffffffffffffffffffffffffffffffffffff1663a9059cbb33856040518363ffffffff1660e01b8152600401610854929190611477565b602060405180830381600087803b15801561086e57600080fd5b505af1158015610882573d6000803e3d6000fd5b505050506040513d601f19601f820116820180604052506108a69190810190610f47565b6108af57600080fd5b50505050565b6001808111156108c157fe5b6108cb813361062a565b61090a576040517f08c379a000000000000000000000000000000000000000000000000000000000815260040161090190611590565b60405180910390fd5b610912610a8e565b73ffffffffffffffffffffffffffffffffffffffff1663d8651ad08585856040518463ffffffff1660e01b815260040161094e939291906114bb565b600060405180830381600087803b15801561096857600080fd5b505af115801561097c573d6000803e3d6000fd5b5050505050505050565b816001600281111561099457fe5b60008083815260200190815260200160002060010160009054906101000a900460ff1660028111156109c257fe5b14610a02576040517f08c379a00000000000000000000000000000000000000000000000000000000081526004016109f990611550565b60405180910390fd5b82610a22600080838152602001908152602001600020600001543361062a565b610a61576040517f08c379a0000000000000000000000000000000000000000000000000000000008152600401610a58906115d0565b60405180910390fd5b610a8883600080878152602001908152602001600020600201610cde90919063ffffffff16565b50505050565b6000600260009054906101000a900473ffffffffffffffffffffffffffffffffffffffff1673ffffffffffffffffffffffffffffffffffffffff1663aafd5e406040518163ffffffff1660e01b8152600401610ae990611537565b60206040518083038186803b158015610b0157600080fd5b505afa158015610b15573d6000803e3d6000fd5b505050506040513d601f19601f82011682018060405250610b399190810190610ee2565b905090565b60008260000160008373ffffffffffffffffffffffffffffffffffffffff1673ffffffffffffffffffffffffffffffffffffffff16815260200190815260200160002060006101000a81548160ff0219169083151502179055505050565b60018260000160008373ffffffffffffffffffffffffffffffffffffffff1673ffffffffffffffffffffffffffffffffffffffff16815260200190815260200160002060006101000a81548160ff0219169083151502179055505050565b60008173ffffffffffffffffffffffffffffffffffffffff168360000160009054906101000a900473ffffffffffffffffffffffffffffffffffffffff1673ffffffffffffffffffffffffffffffffffffffff1614905092915050565b60008260000160008373ffffffffffffffffffffffffffffffffffffffff1673ffffffffffffffffffffffffffffffffffffffff16815260200190815260200160002060009054906101000a900460ff16905092915050565b60008160000160009054906101000a900473ffffffffffffffffffffffffffffffffffffffff169050919050565b600073ffffffffffffffffffffffffffffffffffffffff168173ffffffffffffffffffffffffffffffffffffffff161415610d4e576040517f08c379a0000000000000000000000000000000000000000000000000000000008152600401610d45906115b0565b60405180910390fd5b808260000160006101000a81548173ffffffffffffffffffffffffffffffffffffffff021916908373ffffffffffffffffffffffffffffffffffffffff1602179055505050565b600081359050610da481611771565b92915050565b600081519050610db981611771565b92915050565b600082601f830112610dd057600080fd5b8135610de3610dde8261166d565b611640565b91508181835260208401935060208101905083856040840282011115610e0857600080fd5b60005b83811015610e385781610e1e8882610e81565b845260208401935060408301925050600181019050610e0b565b5050505092915050565b600081519050610e5181611788565b92915050565b600081359050610e668161179f565b92915050565b600081359050610e7b816117b6565b92915050565b600060408284031215610e9357600080fd5b610e9d6040611640565b90506000610ead84828501610e57565b6000830152506020610ec184828501610ecd565b60208301525092915050565b600081359050610edc816117cd565b92915050565b600060208284031215610ef457600080fd5b6000610f0284828501610daa565b91505092915050565b60008060408385031215610f1e57600080fd5b6000610f2c85828601610d95565b9250506020610f3d85828601610ecd565b9150509250929050565b600060208284031215610f5957600080fd5b6000610f6784828501610e42565b91505092915050565b600080600060608486031215610f8557600080fd5b6000610f9386828701610e57565b9350506020610fa486828701610ecd565b9250506040610fb586828701610e57565b9150509250925092565b60008060008060808587031215610fd557600080fd5b6000610fe387828801610e57565b9450506020610ff487828801610ecd565b935050604061100587828801610e6c565b925050606061101687828801610e6c565b91505092959194509250565b60006020828403121561103457600080fd5b600061104284828501610ecd565b91505092915050565b6000806040838503121561105e57600080fd5b600061106c85828601610ecd565b925050602061107d85828601610d95565b9150509250929050565b6000806040838503121561109a57600080fd5b60006110a885828601610ecd565b925050602083013567ffffffffffffffff8111156110c557600080fd5b6110d185828601610dbf565b9150509250929050565b60006110e7838361140f565b60408301905092915050565b6110fc8161173b565b82525050565b61110b816116df565b82525050565b600061111c826116a5565b61112681856116bd565b935061113183611695565b8060005b8381101561116257815161114988826110db565b9750611154836116b0565b925050600181019050611135565b5085935050505092915050565b611178816116f1565b82525050565b611187816116fd565b82525050565b611196816116fd565b82525050565b6111a581611707565b82525050565b7f4f7261636c650000000000000000000000000000000000000000000000000000815250565b60006111de602f836116ce565b91507f4d7573742062652063616c6c6564206f6e20616e20696e697469616c697a656460008301527f204578636c757369766520726f6c6500000000000000000000000000000000006020830152604082019050919050565b6000611244602c836116ce565b91507f4d7573742062652063616c6c6564206f6e20616e20696e697469616c697a656460008301527f2053686172656420726f6c6500000000000000000000000000000000000000006020830152604082019050919050565b60006112aa6022836116ce565b91507f53656e64657220646f6573206e6f7420686f6c6420726571756972656420726f60008301527f6c650000000000000000000000000000000000000000000000000000000000006020830152604082019050919050565b60006113106023836116ce565b91507f43616e6e6f742073657420616e206578636c757369766520726f6c6520746f2060008301527f30783000000000000000000000000000000000000000000000000000000000006020830152604082019050919050565b60006113766024836116ce565b91507f43616e206f6e6c792062652063616c6c6564206279206120726f6c65206d616e60008301527f61676572000000000000000000000000000000000000000000000000000000006020830152604082019050919050565b60006113dc600e836116ce565b91507f496e76616c696420726f6c6549640000000000000000000000000000000000006000830152602082019050919050565b604082016000820151611425600085018261117e565b506020820151611438602085018261143e565b50505050565b61144781611731565b82525050565b61145681611731565b82525050565b60006020820190506114716000830184611102565b92915050565b600060408201905061148c60008301856110f3565b611499602083018461144d565b9392505050565b60006020820190506114b5600083018461116f565b92915050565b60006060820190506114d0600083018661118d565b6114dd602083018561144d565b6114ea604083018461118d565b949350505050565b6000608082019050611507600083018761118d565b611514602083018661144d565b611521604083018561119c565b61152e606083018461119c565b95945050505050565b600060208201905061154b600083016111ab565b919050565b60006020820190508181036000830152611569816111d1565b9050919050565b6000602082019050818103600083015261158981611237565b9050919050565b600060208201905081810360008301526115a98161129d565b9050919050565b600060208201905081810360008301526115c981611303565b9050919050565b600060208201905081810360008301526115e981611369565b9050919050565b60006020820190508181036000830152611609816113cf565b9050919050565b6000604082019050611625600083018561144d565b81810360208301526116378184611111565b90509392505050565b6000604051905081810181811067ffffffffffffffff8211171561166357600080fd5b8060405250919050565b600067ffffffffffffffff82111561168457600080fd5b602082029050602081019050919050565b6000819050602082019050919050565b600081519050919050565b6000602082019050919050565b600082825260208201905092915050565b600082825260208201905092915050565b60006116ea82611711565b9050919050565b60008115159050919050565b6000819050919050565b6000819050919050565b600073ffffffffffffffffffffffffffffffffffffffff82169050919050565b6000819050919050565b60006117468261174d565b9050919050565b60006117588261175f565b9050919050565b600061176a82611711565b9050919050565b61177a816116df565b811461178557600080fd5b50565b611791816116f1565b811461179c57600080fd5b50565b6117a8816116fd565b81146117b357600080fd5b50565b6117bf81611707565b81146117ca57600080fd5b50565b6117d681611731565b81146117e157600080fd5b50565b6117ee8282610cde565b505056fea365627a7a723158201d121cb9995e787585d49f99a8602ecd686ee070295a3dbe38bf5542dd9deb5f6c6578706572696d656e74616cf564736f6c634300050d0040",
  "source": "pragma solidity ^0.5.0;\n\npragma experimental ABIEncoderV2;\n\nimport \"./Finder.sol\";\nimport \"./MultiRole.sol\";\nimport \"./Withdrawable.sol\";\nimport \"./Voting.sol\";\nimport \"./VotingInterface.sol\";\n\n\n/**\n * @title Proxy to allow voting from another address\n * @dev Allows a UMA token holder to designate another address to vote on their behalf. Each voter must deploy their own\n * instance of this contract.\n */\ncontract DesignatedVoting is MultiRole, Withdrawable {\n\n    enum Roles {\n        // Can set the Voter and Withdrawer roles.\n        Owner,\n        // Can vote through this contract.\n        Voter\n    }\n\n    // Reference to the UMA Finder contract, allowing Voting upgrades to be performed without requiring any calls to\n    // this contract.\n    Finder private finder;\n\n    constructor(address finderAddress) public {\n        _createExclusiveRole(uint(Roles.Owner), uint(Roles.Owner), msg.sender);\n        _createExclusiveRole(uint(Roles.Voter), uint(Roles.Owner), msg.sender);\n        setWithdrawRole(uint(Roles.Owner));\n\n        finder = Finder(finderAddress);\n    }\n\n    /**\n     * @notice Forwards a commit to Voting.\n     */\n    function commitVote(bytes32 identifier, uint time, bytes32 hash) external onlyRoleHolder(uint(Roles.Voter)) {\n        _getVotingAddress().commitVote(identifier, time, hash);\n    }\n\n    /**\n     * @notice Forwards a reveal to Voting.\n     */\n    function revealVote(bytes32 identifier, uint time, int price, int salt) external onlyRoleHolder(uint(Roles.Voter)) {\n        _getVotingAddress().revealVote(identifier, time, price, salt);\n    }\n\n    /**\n     * @notice Forwards a reward retrieval to Voting.\n     */\n    function retrieveRewards(uint roundId, VotingInterface.PendingRequest[] memory toRetrieve)\n        public\n        onlyRoleHolder(uint(Roles.Voter))\n    {\n        _getVotingAddress().retrieveRewards(roundId, toRetrieve);\n    }\n\n    function _getVotingAddress() private view returns (Voting) {\n        return Voting(finder.getImplementationAddress(\"Oracle\"));\n    }\n}\n",
  "sourcePath": "/home/mattczernik/Workspace/uma/protocol/core/contracts/DesignatedVoting.sol",
  "compiler": {
    "name": "solc",
    "version": "0.5.13+commit.5b0b510c.Emscripten.clang"
  },
  "schemaVersion": "3.0.16",
  "updatedAt": "2019-11-30T00:32:28.993Z",
  "devdoc": {
    "details": "Allows a UMA token holder to designate another address to vote on their behalf. Each voter must deploy their own instance of this contract.",
    "methods": {
      "addMember(uint256,address)": {
        "details": "Reverts if `roleId` does not represent an initialized, shared role or if the caller is not a member of the managing role for `roleId`."
      },
      "getMember(uint256)": {
        "details": "Reverts if `roleId` does not represent an initialized, exclusive role."
      },
      "holdsRole(uint256,address)": {
        "details": "Reverts if roleId does not correspond to an initialized role."
      },
      "removeMember(uint256,address)": {
        "details": "Reverts if `roleId` does not represent an initialized, shared role or if the caller is not a member of the managing role for `roleId`."
      },
      "resetMember(uint256,address)": {
        "details": "Reverts if the caller is not a member of the managing role for `roleId` or if `roleId` is not an initialized, exclusive role."
      }
    },
    "title": "Proxy to allow voting from another address"
  },
  "userdoc": {
    "methods": {
      "addMember(uint256,address)": {
        "notice": "Adds `newMember` to the shared role, `roleId`."
      },
      "commitVote(bytes32,uint256,bytes32)": {
        "notice": "Forwards a commit to Voting."
      },
      "getMember(uint256)": {
        "notice": "Gets the current holder of the exclusive role, `roleId`."
      },
      "holdsRole(uint256,address)": {
        "notice": "Whether `memberToCheck` is a member of roleId."
      },
      "removeMember(uint256,address)": {
        "notice": "Removes `memberToRemove` from the shared role, `roleId`."
      },
      "resetMember(uint256,address)": {
        "notice": "Changes the exclusive role holder of `roleId` to `newMember`."
      },
      "retrieveRewards(uint256,(bytes32,uint256)[])": {
        "notice": "Forwards a reward retrieval to Voting."
      },
      "revealVote(bytes32,uint256,int256,int256)": {
        "notice": "Forwards a reveal to Voting."
      },
      "withdraw(uint256)": {
        "notice": "Withdraws ETH from the contract."
      },
      "withdrawErc20(address,uint256)": {
        "notice": "Withdraws ERC20 tokens from the contract."
      }
    }
  }
}