{
  "contractName": "FinancialContractsAdmin",
  "abi": [
    {
      "inputs": [],
      "payable": false,
      "stateMutability": "nonpayable",
      "type": "constructor"
    },
    {
      "constant": false,
      "inputs": [
        {
          "internalType": "uint256",
          "name": "roleId",
          "type": "uint256"
        },
        {
          "internalType": "address",
          "name": "newMember",
          "type": "address"
        }
      ],
      "name": "addMember",
      "outputs": [],
      "payable": false,
      "stateMutability": "nonpayable",
      "type": "function"
    },
    {
      "constant": true,
      "inputs": [
        {
          "internalType": "uint256",
          "name": "roleId",
          "type": "uint256"
        }
      ],
      "name": "getMember",
      "outputs": [
        {
          "internalType": "address",
          "name": "",
          "type": "address"
        }
      ],
      "payable": false,
      "stateMutability": "view",
      "type": "function"
    },
    {
      "constant": true,
      "inputs": [
        {
          "internalType": "uint256",
          "name": "roleId",
          "type": "uint256"
        },
        {
          "internalType": "address",
          "name": "memberToCheck",
          "type": "address"
        }
      ],
      "name": "holdsRole",
      "outputs": [
        {
          "internalType": "bool",
          "name": "",
          "type": "bool"
        }
      ],
      "payable": false,
      "stateMutability": "view",
      "type": "function"
    },
    {
      "constant": false,
      "inputs": [
        {
          "internalType": "uint256",
          "name": "roleId",
          "type": "uint256"
        },
        {
          "internalType": "address",
          "name": "memberToRemove",
          "type": "address"
        }
      ],
      "name": "removeMember",
      "outputs": [],
      "payable": false,
      "stateMutability": "nonpayable",
      "type": "function"
    },
    {
      "constant": false,
      "inputs": [
        {
          "internalType": "uint256",
          "name": "roleId",
          "type": "uint256"
        },
        {
          "internalType": "address",
          "name": "newMember",
          "type": "address"
        }
      ],
      "name": "resetMember",
      "outputs": [],
      "payable": false,
      "stateMutability": "nonpayable",
      "type": "function"
    },
    {
      "constant": false,
      "inputs": [
        {
          "internalType": "address",
          "name": "financialContract",
          "type": "address"
        }
      ],
      "name": "callEmergencyShutdown",
      "outputs": [],
      "payable": false,
      "stateMutability": "nonpayable",
      "type": "function"
    },
    {
      "constant": false,
      "inputs": [
        {
          "internalType": "address",
          "name": "financialContract",
          "type": "address"
        }
      ],
      "name": "callRemargin",
      "outputs": [],
      "payable": false,
      "stateMutability": "nonpayable",
      "type": "function"
    }
  ],
  "bytecode": "0x60806040523480156200001157600080fd5b506200003f600060028111156200002457fe5b600060028111156200003257fe5b33620000cf60201b60201c565b6200009d600160028111156200005157fe5b600060028111156200005f57fe5b6000604051908082528060200260200182016040528015620000905781602001602082028038833980820191505090505b506200028160201b60201c565b620000c9600280811115620000ae57fe5b60006002811115620000bc57fe5b33620000cf60201b60201c565b620005bf565b8260006002811115620000de57fe5b60008083815260200190815260200160002060010160009054906101000a900460ff1660028111156200010d57fe5b1462000181576040517f08c379a000000000000000000000000000000000000000000000000000000000815260040180806020018281038252601e8152602001807f43616e6e6f74207573652061207072652d6578697374696e6720726f6c65000081525060200191505060405180910390fd5b6000806000868152602001908152602001600020905060018160010160006101000a81548160ff02191690836002811115620001b957fe5b0217905550838160000181905550620001e483826002016200043360201b62000c611790919060201c565b60006002811115620001f257fe5b60008086815260200190815260200160002060010160009054906101000a900460ff1660028111156200022157fe5b14156200027a576040517f08c379a000000000000000000000000000000000000000000000000000000000815260040180806020018281038252603c81526020018062001375603c913960400191505060405180910390fd5b5050505050565b82600060028111156200029057fe5b60008083815260200190815260200160002060010160009054906101000a900460ff166002811115620002bf57fe5b1462000333576040517f08c379a000000000000000000000000000000000000000000000000000000000815260040180806020018281038252601e8152602001807f43616e6e6f74207573652061207072652d6578697374696e6720726f6c65000081525060200191505060405180910390fd5b6000806000868152602001908152602001600020905060028160010160006101000a81548160ff021916908360028111156200036b57fe5b02179055508381600001819055506200039683826003016200044960201b62000c6f1790919060201c565b60006002811115620003a457fe5b60008086815260200190815260200160002060010160009054906101000a900460ff166002811115620003d357fe5b14156200042c576040517f08c379a0000000000000000000000000000000000000000000000000000000008152600401808060200182810382526038815260200180620013d46038913960400191505060405180910390fd5b5050505050565b6200044582826200049260201b60201c565b5050565b60008090505b81518110156200048d576200047f838383815181106200046b57fe5b60200260200101516200056160201b60201c565b80806001019150506200044f565b505050565b600073ffffffffffffffffffffffffffffffffffffffff168173ffffffffffffffffffffffffffffffffffffffff1614156200051a576040517f08c379a0000000000000000000000000000000000000000000000000000000008152600401808060200182810382526023815260200180620013b16023913960400191505060405180910390fd5b808260000160006101000a81548173ffffffffffffffffffffffffffffffffffffffff021916908373ffffffffffffffffffffffffffffffffffffffff1602179055505050565b60018260000160008373ffffffffffffffffffffffffffffffffffffffff1673ffffffffffffffffffffffffffffffffffffffff16815260200190815260200160002060006101000a81548160ff0219169083151502179055505050565b610da680620005cf6000396000f3fe608060405234801561001057600080fd5b506004361061007d5760003560e01c806374d0a6761161005b57806374d0a676146101585780637cdc1cb9146101a6578063ab3545e51461020c578063d97c05be1461027a5761007d565b80630caf412114610082578063547e1c40146100c65780636be7658b1461010a575b600080fd5b6100c46004803603602081101561009857600080fd5b81019080803573ffffffffffffffffffffffffffffffffffffffff1690602001909291905050506102c8565b005b610108600480360360208110156100dc57600080fd5b81019080803573ffffffffffffffffffffffffffffffffffffffff16906020019092919050505061039d565b005b6101566004803603604081101561012057600080fd5b8101908080359060200190929190803573ffffffffffffffffffffffffffffffffffffffff169060200190929190505050610473565b005b6101a46004803603604081101561016e57600080fd5b8101908080359060200190929190803573ffffffffffffffffffffffffffffffffffffffff1690602001909291905050506105a6565b005b6101f2600480360360408110156101bc57600080fd5b8101908080359060200190929190803573ffffffffffffffffffffffffffffffffffffffff1690602001909291905050506106d9565b604051808215151515815260200191505060405180910390f35b6102386004803603602081101561022257600080fd5b8101908080359060200190929190505050610807565b604051808273ffffffffffffffffffffffffffffffffffffffff1673ffffffffffffffffffffffffffffffffffffffff16815260200191505060405180910390f35b6102c66004803603604081101561029057600080fd5b8101908080359060200190929190803573ffffffffffffffffffffffffffffffffffffffff1690602001909291905050506108c0565b005b6002808111156102d457fe5b6102de81336106d9565b610333576040517f08c379a0000000000000000000000000000000000000000000000000000000008152600401808060200182810382526022815260200180610d096022913960400191505060405180910390fd5b60008290508073ffffffffffffffffffffffffffffffffffffffff16633403c2fc6040518163ffffffff1660e01b8152600401600060405180830381600087803b15801561038057600080fd5b505af1158015610394573d6000803e3d6000fd5b50505050505050565b600160028111156103aa57fe5b6103b481336106d9565b610409576040517f08c379a0000000000000000000000000000000000000000000000000000000008152600401808060200182810382526022815260200180610d096022913960400191505060405180910390fd5b60008290508073ffffffffffffffffffffffffffffffffffffffff1663bda02e776040518163ffffffff1660e01b8152600401600060405180830381600087803b15801561045657600080fd5b505af115801561046a573d6000803e3d6000fd5b50505050505050565b8160028081111561048057fe5b60008083815260200190815260200160002060010160009054906101000a900460ff1660028111156104ae57fe5b14610504576040517f08c379a000000000000000000000000000000000000000000000000000000000815260040180806020018281038252602c815260200180610cdd602c913960400191505060405180910390fd5b8261052460008083815260200190815260200160002060000154336106d9565b610579576040517f08c379a0000000000000000000000000000000000000000000000000000000008152600401808060200182810382526024815260200180610d4e6024913960400191505060405180910390fd5b6105a0836000808781526020019081526020016000206003016109f490919063ffffffff16565b50505050565b816002808111156105b357fe5b60008083815260200190815260200160002060010160009054906101000a900460ff1660028111156105e157fe5b14610637576040517f08c379a000000000000000000000000000000000000000000000000000000000815260040180806020018281038252602c815260200180610cdd602c913960400191505060405180910390fd5b8261065760008083815260200190815260200160002060000154336106d9565b6106ac576040517f08c379a0000000000000000000000000000000000000000000000000000000008152600401808060200182810382526024815260200180610d4e6024913960400191505060405180910390fd5b6106d383600080878152602001908152602001600020600301610a5290919063ffffffff16565b50505050565b6000806000808581526020019081526020016000209050600160028111156106fd57fe5b8160010160009054906101000a900460ff16600281111561071a57fe5b141561073e576107368382600201610ab090919063ffffffff16565b915050610801565b60028081111561074a57fe5b8160010160009054906101000a900460ff16600281111561076757fe5b141561078b576107838382600301610b0d90919063ffffffff16565b915050610801565b60006107ff576040517f08c379a000000000000000000000000000000000000000000000000000000000815260040180806020018281038252600e8152602001807f496e76616c696420726f6c65496400000000000000000000000000000000000081525060200191505060405180910390fd5b505b92915050565b6000816001600281111561081757fe5b60008083815260200190815260200160002060010160009054906101000a900460ff16600281111561084557fe5b1461089b576040517f08c379a000000000000000000000000000000000000000000000000000000000815260040180806020018281038252602f815260200180610cae602f913960400191505060405180910390fd5b6108b8600080858152602001908152602001600020600201610b66565b915050919050565b81600160028111156108ce57fe5b60008083815260200190815260200160002060010160009054906101000a900460ff1660028111156108fc57fe5b14610952576040517f08c379a000000000000000000000000000000000000000000000000000000000815260040180806020018281038252602f815260200180610cae602f913960400191505060405180910390fd5b8261097260008083815260200190815260200160002060000154336106d9565b6109c7576040517f08c379a0000000000000000000000000000000000000000000000000000000008152600401808060200182810382526024815260200180610d4e6024913960400191505060405180910390fd5b6109ee83600080878152602001908152602001600020600201610b9490919063ffffffff16565b50505050565b60008260000160008373ffffffffffffffffffffffffffffffffffffffff1673ffffffffffffffffffffffffffffffffffffffff16815260200190815260200160002060006101000a81548160ff0219169083151502179055505050565b60018260000160008373ffffffffffffffffffffffffffffffffffffffff1673ffffffffffffffffffffffffffffffffffffffff16815260200190815260200160002060006101000a81548160ff0219169083151502179055505050565b60008173ffffffffffffffffffffffffffffffffffffffff168360000160009054906101000a900473ffffffffffffffffffffffffffffffffffffffff1673ffffffffffffffffffffffffffffffffffffffff1614905092915050565b60008260000160008373ffffffffffffffffffffffffffffffffffffffff1673ffffffffffffffffffffffffffffffffffffffff16815260200190815260200160002060009054906101000a900460ff16905092915050565b60008160000160009054906101000a900473ffffffffffffffffffffffffffffffffffffffff169050919050565b600073ffffffffffffffffffffffffffffffffffffffff168173ffffffffffffffffffffffffffffffffffffffff161415610c1a576040517f08c379a0000000000000000000000000000000000000000000000000000000008152600401808060200182810382526023815260200180610d2b6023913960400191505060405180910390fd5b808260000160006101000a81548173ffffffffffffffffffffffffffffffffffffffff021916908373ffffffffffffffffffffffffffffffffffffffff1602179055505050565b610c6b8282610b94565b5050565b60008090505b8151811015610ca857610c9b83838381518110610c8e57fe5b6020026020010151610a52565b8080600101915050610c75565b50505056fe4d7573742062652063616c6c6564206f6e20616e20696e697469616c697a6564204578636c757369766520726f6c654d7573742062652063616c6c6564206f6e20616e20696e697469616c697a65642053686172656420726f6c6553656e64657220646f6573206e6f7420686f6c6420726571756972656420726f6c6543616e6e6f742073657420616e206578636c757369766520726f6c6520746f2030783043616e206f6e6c792062652063616c6c6564206279206120726f6c65206d616e61676572a265627a7a72315820faff8ebf9ea56b001505e0c0862994b61b6445370176d0766cdcb5cd656965f064736f6c634300050d0032417474656d7074656420746f2075736520616e20696e76616c696420726f6c6520746f206d616e61676520616e206578636c757369766520726f6c6543616e6e6f742073657420616e206578636c757369766520726f6c6520746f20307830417474656d7074656420746f2075736520616e20696e76616c696420726f6c6520746f206d616e61676520612073686172656420726f6c65",
  "source": "pragma solidity ^0.5.0;\n\nimport \"./AdministrateeInterface.sol\";\nimport \"./MultiRole.sol\";\n\n\n/**\n * @title Admin for financial contracts in the UMA system.\n * @dev Allows appropriately permissioned admin roles to interact with financial contracts.\n */\ncontract FinancialContractsAdmin is MultiRole {\n\n    enum Roles {\n        // Can set the `Remargin` and `EmergencyShutdown` roles.\n        Governance,\n        // Is authorized to call `remargin()` on any financial contract in the system.\n        Remargin,\n        // Is authorized to shutdown any financial contract in the system.\n        EmergencyShutdown\n    }\n\n    constructor() public {\n        _createExclusiveRole(uint(Roles.Governance), uint(Roles.Governance), msg.sender);\n        _createSharedRole(uint(Roles.Remargin), uint(Roles.Governance), new address[](0));\n        _createExclusiveRole(uint(Roles.EmergencyShutdown), uint(Roles.Governance), msg.sender);\n    }\n\n    /**\n     * @dev Calls emergency shutdown on the provided financial contract.\n     */\n    function callEmergencyShutdown(address financialContract) external onlyRoleHolder(uint(Roles.EmergencyShutdown)) {\n        AdministrateeInterface administratee = AdministrateeInterface(financialContract);\n        administratee.emergencyShutdown();\n    }\n\n    /**\n     * @dev Calls remargin on the provided financial contract.\n     */\n    function callRemargin(address financialContract) external onlyRoleHolder(uint(Roles.Remargin)) {\n        AdministrateeInterface administratee = AdministrateeInterface(financialContract);\n        administratee.remargin();\n    }\n}\n",
  "sourcePath": "/home/mattczernik/Workspace/uma/protocol/core/contracts/FinancialContractsAdmin.sol",
  "compiler": {
    "name": "solc",
    "version": "0.5.13+commit.5b0b510c.Emscripten.clang"
  },
  "schemaVersion": "3.0.16",
  "updatedAt": "2019-11-30T00:32:28.996Z",
  "devdoc": {
    "details": "Allows appropriately permissioned admin roles to interact with financial contracts.",
    "methods": {
      "addMember(uint256,address)": {
        "details": "Reverts if `roleId` does not represent an initialized, shared role or if the caller is not a member of the managing role for `roleId`."
      },
      "callEmergencyShutdown(address)": {
        "details": "Calls emergency shutdown on the provided financial contract."
      },
      "callRemargin(address)": {
        "details": "Calls remargin on the provided financial contract."
      },
      "getMember(uint256)": {
        "details": "Reverts if `roleId` does not represent an initialized, exclusive role."
      },
      "holdsRole(uint256,address)": {
        "details": "Reverts if roleId does not correspond to an initialized role."
      },
      "removeMember(uint256,address)": {
        "details": "Reverts if `roleId` does not represent an initialized, shared role or if the caller is not a member of the managing role for `roleId`."
      },
      "resetMember(uint256,address)": {
        "details": "Reverts if the caller is not a member of the managing role for `roleId` or if `roleId` is not an initialized, exclusive role."
      }
    },
    "title": "Admin for financial contracts in the UMA system."
  },
  "userdoc": {
    "methods": {
      "addMember(uint256,address)": {
        "notice": "Adds `newMember` to the shared role, `roleId`."
      },
      "getMember(uint256)": {
        "notice": "Gets the current holder of the exclusive role, `roleId`."
      },
      "holdsRole(uint256,address)": {
        "notice": "Whether `memberToCheck` is a member of roleId."
      },
      "removeMember(uint256,address)": {
        "notice": "Removes `memberToRemove` from the shared role, `roleId`."
      },
      "resetMember(uint256,address)": {
        "notice": "Changes the exclusive role holder of `roleId` to `newMember`."
      }
    }
  }
}