{
  "contractName": "ManualPriceFeed",
  "abi": [
    {
      "inputs": [
        {
          "internalType": "bool",
          "name": "_isTest",
          "type": "bool"
        }
      ],
      "payable": false,
      "stateMutability": "nonpayable",
      "type": "constructor"
    },
    {
      "anonymous": false,
      "inputs": [
        {
          "indexed": true,
          "internalType": "bytes32",
          "name": "identifier",
          "type": "bytes32"
        },
        {
          "indexed": true,
          "internalType": "uint256",
          "name": "time",
          "type": "uint256"
        },
        {
          "indexed": false,
          "internalType": "int256",
          "name": "price",
          "type": "int256"
        }
      ],
      "name": "PriceUpdated",
      "type": "event"
    },
    {
      "constant": false,
      "inputs": [
        {
          "internalType": "uint256",
          "name": "roleId",
          "type": "uint256"
        },
        {
          "internalType": "address",
          "name": "newMember",
          "type": "address"
        }
      ],
      "name": "addMember",
      "outputs": [],
      "payable": false,
      "stateMutability": "nonpayable",
      "type": "function"
    },
    {
      "constant": true,
      "inputs": [],
      "name": "getCurrentTime",
      "outputs": [
        {
          "internalType": "uint256",
          "name": "",
          "type": "uint256"
        }
      ],
      "payable": false,
      "stateMutability": "view",
      "type": "function"
    },
    {
      "constant": true,
      "inputs": [
        {
          "internalType": "uint256",
          "name": "roleId",
          "type": "uint256"
        }
      ],
      "name": "getMember",
      "outputs": [
        {
          "internalType": "address",
          "name": "",
          "type": "address"
        }
      ],
      "payable": false,
      "stateMutability": "view",
      "type": "function"
    },
    {
      "constant": true,
      "inputs": [
        {
          "internalType": "uint256",
          "name": "roleId",
          "type": "uint256"
        },
        {
          "internalType": "address",
          "name": "memberToCheck",
          "type": "address"
        }
      ],
      "name": "holdsRole",
      "outputs": [
        {
          "internalType": "bool",
          "name": "",
          "type": "bool"
        }
      ],
      "payable": false,
      "stateMutability": "view",
      "type": "function"
    },
    {
      "constant": true,
      "inputs": [],
      "name": "isTest",
      "outputs": [
        {
          "internalType": "bool",
          "name": "",
          "type": "bool"
        }
      ],
      "payable": false,
      "stateMutability": "view",
      "type": "function"
    },
    {
      "constant": false,
      "inputs": [
        {
          "internalType": "uint256",
          "name": "roleId",
          "type": "uint256"
        },
        {
          "internalType": "address",
          "name": "memberToRemove",
          "type": "address"
        }
      ],
      "name": "removeMember",
      "outputs": [],
      "payable": false,
      "stateMutability": "nonpayable",
      "type": "function"
    },
    {
      "constant": false,
      "inputs": [
        {
          "internalType": "uint256",
          "name": "roleId",
          "type": "uint256"
        },
        {
          "internalType": "address",
          "name": "newMember",
          "type": "address"
        }
      ],
      "name": "resetMember",
      "outputs": [],
      "payable": false,
      "stateMutability": "nonpayable",
      "type": "function"
    },
    {
      "constant": false,
      "inputs": [
        {
          "internalType": "uint256",
          "name": "_time",
          "type": "uint256"
        }
      ],
      "name": "setCurrentTime",
      "outputs": [],
      "payable": false,
      "stateMutability": "nonpayable",
      "type": "function"
    },
    {
      "constant": false,
      "inputs": [
        {
          "internalType": "uint256",
          "name": "amount",
          "type": "uint256"
        }
      ],
      "name": "withdraw",
      "outputs": [],
      "payable": false,
      "stateMutability": "nonpayable",
      "type": "function"
    },
    {
      "constant": false,
      "inputs": [
        {
          "internalType": "address",
          "name": "erc20Address",
          "type": "address"
        },
        {
          "internalType": "uint256",
          "name": "amount",
          "type": "uint256"
        }
      ],
      "name": "withdrawErc20",
      "outputs": [],
      "payable": false,
      "stateMutability": "nonpayable",
      "type": "function"
    },
    {
      "constant": false,
      "inputs": [
        {
          "internalType": "bytes32",
          "name": "identifier",
          "type": "bytes32"
        },
        {
          "internalType": "uint256",
          "name": "publishTime",
          "type": "uint256"
        },
        {
          "internalType": "int256",
          "name": "newPrice",
          "type": "int256"
        }
      ],
      "name": "pushLatestPrice",
      "outputs": [],
      "payable": false,
      "stateMutability": "nonpayable",
      "type": "function"
    },
    {
      "constant": true,
      "inputs": [
        {
          "internalType": "bytes32",
          "name": "identifier",
          "type": "bytes32"
        }
      ],
      "name": "isIdentifierSupported",
      "outputs": [
        {
          "internalType": "bool",
          "name": "isSupported",
          "type": "bool"
        }
      ],
      "payable": false,
      "stateMutability": "view",
      "type": "function"
    },
    {
      "constant": true,
      "inputs": [
        {
          "internalType": "bytes32",
          "name": "identifier",
          "type": "bytes32"
        }
      ],
      "name": "latestPrice",
      "outputs": [
        {
          "internalType": "uint256",
          "name": "publishTime",
          "type": "uint256"
        },
        {
          "internalType": "int256",
          "name": "price",
          "type": "int256"
        }
      ],
      "payable": false,
      "stateMutability": "view",
      "type": "function"
    }
  ],
  "bytecode": "0x60806040523480156200001157600080fd5b50604051620015e6380380620015e6833981810160405260208110156200003757600080fd5b81019080805190602001909291905050508080600260006101000a81548160ff02191690831515021790555080156200007257426003819055505b50620000a0600060028111156200008557fe5b600060028111156200009357fe5b336200010060201b60201c565b620000cd60016002811115620000b257fe5b60006002811115620000c057fe5b336200010060201b60201c565b620000f9600280811115620000de57fe5b60006002811115620000ec57fe5b33620002b260201b60201c565b50620003b6565b82600060028111156200010f57fe5b60008083815260200190815260200160002060010160009054906101000a900460ff1660028111156200013e57fe5b14620001b2576040517f08c379a000000000000000000000000000000000000000000000000000000000815260040180806020018281038252601e8152602001807f43616e6e6f74207573652061207072652d6578697374696e6720726f6c65000081525060200191505060405180910390fd5b6000806000868152602001908152602001600020905060018160010160006101000a81548160ff02191690836002811115620001ea57fe5b0217905550838160000181905550620002158382600201620002d160201b620010ba1790919060201c565b600060028111156200022357fe5b60008086815260200190815260200160002060010160009054906101000a900460ff1660028111156200025257fe5b1415620002ab576040517f08c379a000000000000000000000000000000000000000000000000000000000815260040180806020018281038252603c81526020018062001587603c913960400191505060405180910390fd5b5050505050565b82600181905550620002cc8383836200010060201b60201c565b505050565b620002e38282620002e760201b60201c565b5050565b600073ffffffffffffffffffffffffffffffffffffffff168173ffffffffffffffffffffffffffffffffffffffff1614156200036f576040517f08c379a0000000000000000000000000000000000000000000000000000000008152600401808060200182810382526023815260200180620015c36023913960400191505060405180910390fd5b808260000160006101000a81548173ffffffffffffffffffffffffffffffffffffffff021916908373ffffffffffffffffffffffffffffffffffffffff1602179055505050565b6111c180620003c66000396000f3fe608060405234801561001057600080fd5b50600436106100cf5760003560e01c80637cdc1cb91161008c5780639381a345116100665780639381a34514610321578063ab3545e514610343578063bd1f4b52146103b1578063d97c05be146103ff576100cf565b80637cdc1cb91461023357806388be38ac1461029957806390978d1b146102db576100cf565b806322f8e566146100d457806329cb924d146101025780632e1a7d4d146101205780634eec7c2b1461014e5780636be7658b1461019757806374d0a676146101e5575b600080fd5b610100600480360360208110156100ea57600080fd5b810190808035906020019092919050505061044d565b005b61010a610470565b6040518082815260200191505060405180910390f35b61014c6004803603602081101561013657600080fd5b8101908080359060200190929190505050610498565b005b61017a6004803603602081101561016457600080fd5b8101908080359060200190929190505050610545565b604051808381526020018281526020019250505060405180910390f35b6101e3600480360360408110156101ad57600080fd5b8101908080359060200190929190803573ffffffffffffffffffffffffffffffffffffffff169060200190929190505050610591565b005b610231600480360360408110156101fb57600080fd5b8101908080359060200190929190803573ffffffffffffffffffffffffffffffffffffffff1690602001909291905050506106c4565b005b61027f6004803603604081101561024957600080fd5b8101908080359060200190929190803573ffffffffffffffffffffffffffffffffffffffff1690602001909291905050506107f7565b604051808215151515815260200191505060405180910390f35b6102d9600480360360608110156102af57600080fd5b81019080803590602001909291908035906020019092919080359060200190929190505050610925565b005b610307600480360360208110156102f157600080fd5b8101908080359060200190929190505050610a59565b604051808215151515815260200191505060405180910390f35b610329610a6b565b604051808215151515815260200191505060405180910390f35b61036f6004803603602081101561035957600080fd5b8101908080359060200190929190505050610a7e565b604051808273ffffffffffffffffffffffffffffffffffffffff1673ffffffffffffffffffffffffffffffffffffffff16815260200191505060405180910390f35b6103fd600480360360408110156103c757600080fd5b81019080803573ffffffffffffffffffffffffffffffffffffffff16906020019092919080359060200190929190505050610b37565b005b61044b6004803603604081101561041557600080fd5b8101908080359060200190929190803573ffffffffffffffffffffffffffffffffffffffff169060200190929190505050610c6f565b005b600260009054906101000a900460ff1661046657600080fd5b8060038190555050565b6000600260009054906101000a900460ff1615610491576003549050610495565b4290505b90565b6001546104a581336107f7565b6104fa576040517f08c379a00000000000000000000000000000000000000000000000000000000081526004018080602001828103825260228152602001806111246022913960400191505060405180910390fd5b3373ffffffffffffffffffffffffffffffffffffffff166108fc839081150290604051600060405180830381858888f19350505050158015610540573d6000803e3d6000fd5b505050565b60008061055183610da3565b61055a57600080fd5b6004600084815260200190815260200160002060000154915060046000848152602001908152602001600020600101549050915091565b8160028081111561059e57fe5b60008083815260200190815260200160002060010160009054906101000a900460ff1660028111156105cc57fe5b14610622576040517f08c379a000000000000000000000000000000000000000000000000000000000815260040180806020018281038252602c8152602001806110f8602c913960400191505060405180910390fd5b8261064260008083815260200190815260200160002060000154336107f7565b610697576040517f08c379a00000000000000000000000000000000000000000000000000000000081526004018080602001828103825260248152602001806111696024913960400191505060405180910390fd5b6106be83600080878152602001908152602001600020600301610dc590919063ffffffff16565b50505050565b816002808111156106d157fe5b60008083815260200190815260200160002060010160009054906101000a900460ff1660028111156106ff57fe5b14610755576040517f08c379a000000000000000000000000000000000000000000000000000000000815260040180806020018281038252602c8152602001806110f8602c913960400191505060405180910390fd5b8261077560008083815260200190815260200160002060000154336107f7565b6107ca576040517f08c379a00000000000000000000000000000000000000000000000000000000081526004018080602001828103825260248152602001806111696024913960400191505060405180910390fd5b6107f183600080878152602001908152602001600020600301610e2390919063ffffffff16565b50505050565b60008060008085815260200190815260200160002090506001600281111561081b57fe5b8160010160009054906101000a900460ff16600281111561083857fe5b141561085c576108548382600201610e8190919063ffffffff16565b91505061091f565b60028081111561086857fe5b8160010160009054906101000a900460ff16600281111561088557fe5b14156108a9576108a18382600301610ede90919063ffffffff16565b91505061091f565b600061091d576040517f08c379a000000000000000000000000000000000000000000000000000000000815260040180806020018281038252600e8152602001807f496e76616c696420726f6c65496400000000000000000000000000000000000081525060200191505060405180910390fd5b505b92915050565b6001600281111561093257fe5b61093c81336107f7565b610991576040517f08c379a00000000000000000000000000000000000000000000000000000000081526004018080602001828103825260228152602001806111246022913960400191505060405180910390fd5b6109ad61038461099f610470565b610f3790919063ffffffff16565b8311156109b957600080fd5b600460008581526020019081526020016000206000015483116109db57600080fd5b60405180604001604052808481526020018381525060046000868152602001908152602001600020600082015181600001556020820151816001015590505082847f7b68a704e7137c4430422c835b46aecc2dd2d5e3eb0ec8fd92785c9e97648bd9846040518082815260200191505060405180910390a350505050565b6000610a6482610da3565b9050919050565b600260009054906101000a900460ff1681565b60008160016002811115610a8e57fe5b60008083815260200190815260200160002060010160009054906101000a900460ff166002811115610abc57fe5b14610b12576040517f08c379a000000000000000000000000000000000000000000000000000000000815260040180806020018281038252602f8152602001806110c9602f913960400191505060405180910390fd5b610b2f600080858152602001908152602001600020600201610fbf565b915050919050565b600154610b4481336107f7565b610b99576040517f08c379a00000000000000000000000000000000000000000000000000000000081526004018080602001828103825260228152602001806111246022913960400191505060405180910390fd5b60008390508073ffffffffffffffffffffffffffffffffffffffff1663a9059cbb33856040518363ffffffff1660e01b8152600401808373ffffffffffffffffffffffffffffffffffffffff1673ffffffffffffffffffffffffffffffffffffffff16815260200182815260200192505050602060405180830381600087803b158015610c2557600080fd5b505af1158015610c39573d6000803e3d6000fd5b505050506040513d6020811015610c4f57600080fd5b8101908080519060200190929190505050610c6957600080fd5b50505050565b8160016002811115610c7d57fe5b60008083815260200190815260200160002060010160009054906101000a900460ff166002811115610cab57fe5b14610d01576040517f08c379a000000000000000000000000000000000000000000000000000000000815260040180806020018281038252602f8152602001806110c9602f913960400191505060405180910390fd5b82610d2160008083815260200190815260200160002060000154336107f7565b610d76576040517f08c379a00000000000000000000000000000000000000000000000000000000081526004018080602001828103825260248152602001806111696024913960400191505060405180910390fd5b610d9d83600080878152602001908152602001600020600201610fed90919063ffffffff16565b50505050565b6000806004600084815260200190815260200160002060000154119050919050565b60008260000160008373ffffffffffffffffffffffffffffffffffffffff1673ffffffffffffffffffffffffffffffffffffffff16815260200190815260200160002060006101000a81548160ff0219169083151502179055505050565b60018260000160008373ffffffffffffffffffffffffffffffffffffffff1673ffffffffffffffffffffffffffffffffffffffff16815260200190815260200160002060006101000a81548160ff0219169083151502179055505050565b60008173ffffffffffffffffffffffffffffffffffffffff168360000160009054906101000a900473ffffffffffffffffffffffffffffffffffffffff1673ffffffffffffffffffffffffffffffffffffffff1614905092915050565b60008260000160008373ffffffffffffffffffffffffffffffffffffffff1673ffffffffffffffffffffffffffffffffffffffff16815260200190815260200160002060009054906101000a900460ff16905092915050565b600080828401905083811015610fb5576040517f08c379a000000000000000000000000000000000000000000000000000000000815260040180806020018281038252601b8152602001807f536166654d6174683a206164646974696f6e206f766572666c6f77000000000081525060200191505060405180910390fd5b8091505092915050565b60008160000160009054906101000a900473ffffffffffffffffffffffffffffffffffffffff169050919050565b600073ffffffffffffffffffffffffffffffffffffffff168173ffffffffffffffffffffffffffffffffffffffff161415611073576040517f08c379a00000000000000000000000000000000000000000000000000000000081526004018080602001828103825260238152602001806111466023913960400191505060405180910390fd5b808260000160006101000a81548173ffffffffffffffffffffffffffffffffffffffff021916908373ffffffffffffffffffffffffffffffffffffffff1602179055505050565b6110c48282610fed565b505056fe4d7573742062652063616c6c6564206f6e20616e20696e697469616c697a6564204578636c757369766520726f6c654d7573742062652063616c6c6564206f6e20616e20696e697469616c697a65642053686172656420726f6c6553656e64657220646f6573206e6f7420686f6c6420726571756972656420726f6c6543616e6e6f742073657420616e206578636c757369766520726f6c6520746f2030783043616e206f6e6c792062652063616c6c6564206279206120726f6c65206d616e61676572a265627a7a723158202a49228b93da1009cf27888ce3247a20dd75e9d4233043ab9ecee1b18342cbc364736f6c634300050d0032417474656d7074656420746f2075736520616e20696e76616c696420726f6c6520746f206d616e61676520616e206578636c757369766520726f6c6543616e6e6f742073657420616e206578636c757369766520726f6c6520746f20307830",
  "source": "pragma solidity ^0.5.0;\n\nimport \"openzeppelin-solidity/contracts/math/SafeMath.sol\";\nimport \"openzeppelin-solidity/contracts/ownership/Ownable.sol\";\nimport \"./PriceFeedInterface.sol\";\nimport \"./Testable.sol\";\nimport \"./Withdrawable.sol\";\n\n\n/**\n * @title Implementation of PriceFeedInterface with the ability to manually push prices.\n */\ncontract ManualPriceFeed is PriceFeedInterface, Withdrawable, Testable {\n\n    using SafeMath for uint;\n\n    // A single price update.\n    struct PriceTick {\n        uint timestamp;\n        int price;\n    }\n\n    // Mapping from identifier to the latest price for that identifier.\n    mapping(bytes32 => PriceTick) private prices;\n\n    // Ethereum timestamp tolerance.\n    // Note: this is technically the amount of time that a block timestamp can be *ahead* of the current time. However,\n    // we are assuming that blocks will never get more than this amount *behind* the current time. The only requirement\n    // limiting how early the timestamp can be is that it must have a later timestamp than its parent. However,\n    // this bound will probably work reasonably well in both directions.\n    uint constant private BLOCK_TIMESTAMP_TOLERANCE = 900;\n\n    enum Roles {\n        Governance,\n        Writer,\n        Withdraw\n    }\n\n    constructor(bool _isTest) public Testable(_isTest) {\n        _createExclusiveRole(uint(Roles.Governance), uint(Roles.Governance), msg.sender);\n        _createExclusiveRole(uint(Roles.Writer), uint(Roles.Governance), msg.sender);\n        createWithdrawRole(uint(Roles.Withdraw), uint(Roles.Governance), msg.sender);\n    }\n\n    /**\n     * @notice Adds a new price to the series for a given identifier.\n     * @dev The pushed publishTime must be later than the last time pushed so far.\n     */\n    function pushLatestPrice(bytes32 identifier, uint publishTime, int newPrice) external\n        onlyRoleHolder(uint(Roles.Writer)) {\n        require(publishTime <= getCurrentTime().add(BLOCK_TIMESTAMP_TOLERANCE));\n        require(publishTime > prices[identifier].timestamp);\n        prices[identifier] = PriceTick(publishTime, newPrice);\n        emit PriceUpdated(identifier, publishTime, newPrice);\n    }\n\n    /**\n     * @notice Whether this feed has ever published any prices for this identifier.\n     */\n    function isIdentifierSupported(bytes32 identifier) external view returns (bool isSupported) {\n        isSupported = _isIdentifierSupported(identifier);\n    }\n\n    function latestPrice(bytes32 identifier) external view returns (uint publishTime, int price) {\n        require(_isIdentifierSupported(identifier));\n        publishTime = prices[identifier].timestamp;\n        price = prices[identifier].price;\n    }\n\n    function _isIdentifierSupported(bytes32 identifier) private view returns (bool isSupported) {\n        isSupported = prices[identifier].timestamp > 0;\n    }\n}\n",
  "sourcePath": "/home/mattczernik/Workspace/uma/protocol/core/contracts/ManualPriceFeed.sol",
  "compiler": {
    "name": "solc",
    "version": "0.5.13+commit.5b0b510c.Emscripten.clang"
  },
  "schemaVersion": "3.0.16",
  "updatedAt": "2019-11-30T00:32:29.001Z",
  "devdoc": {
    "methods": {
      "addMember(uint256,address)": {
        "details": "Reverts if `roleId` does not represent an initialized, shared role or if the caller is not a member of the managing role for `roleId`."
      },
      "getMember(uint256)": {
        "details": "Reverts if `roleId` does not represent an initialized, exclusive role."
      },
      "holdsRole(uint256,address)": {
        "details": "Reverts if roleId does not correspond to an initialized role."
      },
      "pushLatestPrice(bytes32,uint256,int256)": {
        "details": "The pushed publishTime must be later than the last time pushed so far."
      },
      "removeMember(uint256,address)": {
        "details": "Reverts if `roleId` does not represent an initialized, shared role or if the caller is not a member of the managing role for `roleId`."
      },
      "resetMember(uint256,address)": {
        "details": "Reverts if the caller is not a member of the managing role for `roleId` or if `roleId` is not an initialized, exclusive role."
      },
      "setCurrentTime(uint256)": {
        "details": "Will revert if not running in test mode."
      }
    },
    "title": "Implementation of PriceFeedInterface with the ability to manually push prices."
  },
  "userdoc": {
    "methods": {
      "addMember(uint256,address)": {
        "notice": "Adds `newMember` to the shared role, `roleId`."
      },
      "getCurrentTime()": {
        "notice": "Gets the current time. Will return the last time set in `setCurrentTime` if running in test mode. Otherwise, it will return the block timestamp."
      },
      "getMember(uint256)": {
        "notice": "Gets the current holder of the exclusive role, `roleId`."
      },
      "holdsRole(uint256,address)": {
        "notice": "Whether `memberToCheck` is a member of roleId."
      },
      "isIdentifierSupported(bytes32)": {
        "notice": "Whether this feed has ever published any prices for this identifier."
      },
      "pushLatestPrice(bytes32,uint256,int256)": {
        "notice": "Adds a new price to the series for a given identifier."
      },
      "removeMember(uint256,address)": {
        "notice": "Removes `memberToRemove` from the shared role, `roleId`."
      },
      "resetMember(uint256,address)": {
        "notice": "Changes the exclusive role holder of `roleId` to `newMember`."
      },
      "setCurrentTime(uint256)": {
        "notice": "Sets the current time."
      },
      "withdraw(uint256)": {
        "notice": "Withdraws ETH from the contract."
      },
      "withdrawErc20(address,uint256)": {
        "notice": "Withdraws ERC20 tokens from the contract."
      }
    }
  }
}