{
  "contractName": "MockAdministratee",
  "abi": [
    {
      "constant": true,
      "inputs": [],
      "name": "timesEmergencyShutdown",
      "outputs": [
        {
          "internalType": "uint256",
          "name": "",
          "type": "uint256"
        }
      ],
      "payable": false,
      "stateMutability": "view",
      "type": "function"
    },
    {
      "constant": true,
      "inputs": [],
      "name": "timesRemargined",
      "outputs": [
        {
          "internalType": "uint256",
          "name": "",
          "type": "uint256"
        }
      ],
      "payable": false,
      "stateMutability": "view",
      "type": "function"
    },
    {
      "constant": false,
      "inputs": [],
      "name": "remargin",
      "outputs": [],
      "payable": false,
      "stateMutability": "nonpayable",
      "type": "function"
    },
    {
      "constant": false,
      "inputs": [],
      "name": "emergencyShutdown",
      "outputs": [],
      "payable": false,
      "stateMutability": "nonpayable",
      "type": "function"
    }
  ],
  "bytecode": "0x608060405234801561001057600080fd5b5060fb8061001f6000396000f3fe6080604052348015600f57600080fd5b506004361060465760003560e01c80633403c2fc14604b5780635d21f153146053578063bda02e7714606f578063bea002bc146077575b600080fd5b60516093565b005b605960a7565b6040518082815260200191505060405180910390f35b607560ad565b005b607d60c0565b6040518082815260200191505060405180910390f35b600160008154809291906001019190505550565b60015481565b6000808154809291906001019190505550565b6000548156fea265627a7a72315820e5399d80bd2218f753c2dbf1272012cbe3b9a97e64d815001fe21e4209a536d264736f6c634300050d0032",
  "source": "pragma solidity ^0.5.0;\n\nimport \"../AdministrateeInterface.sol\";\n\n\n// A mock implementation of AdministrateeInterface, taking the place of a financial contract.\ncontract MockAdministratee is AdministrateeInterface {\n\n    uint public timesRemargined;\n    uint public timesEmergencyShutdown;\n\n    function remargin() external {\n        timesRemargined++;\n    }\n\n    function emergencyShutdown() external {\n        timesEmergencyShutdown++;\n    }\n}\n",
  "sourcePath": "/home/mattczernik/Workspace/uma/protocol/core/contracts/test/MockAdministratee.sol",
  "compiler": {
    "name": "solc",
    "version": "0.5.13+commit.5b0b510c.Emscripten.clang"
  },
  "schemaVersion": "3.0.16",
  "updatedAt": "2019-11-30T00:32:29.171Z",
  "devdoc": {
    "methods": {}
  },
  "userdoc": {
    "methods": {}
  }
}