{
  "contractName": "MockOracle",
  "abi": [
    {
      "inputs": [],
      "payable": false,
      "stateMutability": "nonpayable",
      "type": "constructor"
    },
    {
      "constant": true,
      "inputs": [],
      "name": "getCurrentTime",
      "outputs": [
        {
          "internalType": "uint256",
          "name": "",
          "type": "uint256"
        }
      ],
      "payable": false,
      "stateMutability": "view",
      "type": "function"
    },
    {
      "constant": true,
      "inputs": [],
      "name": "isTest",
      "outputs": [
        {
          "internalType": "bool",
          "name": "",
          "type": "bool"
        }
      ],
      "payable": false,
      "stateMutability": "view",
      "type": "function"
    },
    {
      "constant": false,
      "inputs": [
        {
          "internalType": "uint256",
          "name": "_time",
          "type": "uint256"
        }
      ],
      "name": "setCurrentTime",
      "outputs": [],
      "payable": false,
      "stateMutability": "nonpayable",
      "type": "function"
    },
    {
      "constant": false,
      "inputs": [
        {
          "internalType": "bytes32",
          "name": "identifier",
          "type": "bytes32"
        },
        {
          "internalType": "uint256",
          "name": "time",
          "type": "uint256"
        }
      ],
      "name": "requestPrice",
      "outputs": [
        {
          "internalType": "uint256",
          "name": "expectedTime",
          "type": "uint256"
        }
      ],
      "payable": false,
      "stateMutability": "nonpayable",
      "type": "function"
    },
    {
      "constant": false,
      "inputs": [
        {
          "internalType": "bytes32",
          "name": "identifier",
          "type": "bytes32"
        },
        {
          "internalType": "uint256",
          "name": "time",
          "type": "uint256"
        },
        {
          "internalType": "int256",
          "name": "price",
          "type": "int256"
        }
      ],
      "name": "pushPrice",
      "outputs": [],
      "payable": false,
      "stateMutability": "nonpayable",
      "type": "function"
    },
    {
      "constant": false,
      "inputs": [
        {
          "internalType": "bytes32",
          "name": "identifier",
          "type": "bytes32"
        }
      ],
      "name": "addSupportedIdentifier",
      "outputs": [],
      "payable": false,
      "stateMutability": "nonpayable",
      "type": "function"
    },
    {
      "constant": true,
      "inputs": [
        {
          "internalType": "bytes32",
          "name": "identifier",
          "type": "bytes32"
        },
        {
          "internalType": "uint256",
          "name": "time",
          "type": "uint256"
        }
      ],
      "name": "hasPrice",
      "outputs": [
        {
          "internalType": "bool",
          "name": "hasPriceAvailable",
          "type": "bool"
        }
      ],
      "payable": false,
      "stateMutability": "view",
      "type": "function"
    },
    {
      "constant": true,
      "inputs": [
        {
          "internalType": "bytes32",
          "name": "identifier",
          "type": "bytes32"
        },
        {
          "internalType": "uint256",
          "name": "time",
          "type": "uint256"
        }
      ],
      "name": "getPrice",
      "outputs": [
        {
          "internalType": "int256",
          "name": "price",
          "type": "int256"
        }
      ],
      "payable": false,
      "stateMutability": "view",
      "type": "function"
    },
    {
      "constant": true,
      "inputs": [],
      "name": "getPendingQueries",
      "outputs": [
        {
          "components": [
            {
              "internalType": "bytes32",
              "name": "identifier",
              "type": "bytes32"
            },
            {
              "internalType": "uint256",
              "name": "time",
              "type": "uint256"
            }
          ],
          "internalType": "struct MockOracle.QueryPoint[]",
          "name": "queryPoints",
          "type": "tuple[]"
        }
      ],
      "payable": false,
      "stateMutability": "view",
      "type": "function"
    },
    {
      "constant": true,
      "inputs": [
        {
          "internalType": "bytes32",
          "name": "identifier",
          "type": "bytes32"
        }
      ],
      "name": "isIdentifierSupported",
      "outputs": [
        {
          "internalType": "bool",
          "name": "isSupported",
          "type": "bool"
        }
      ],
      "payable": false,
      "stateMutability": "view",
      "type": "function"
    }
  ],
  "bytecode": "0x608060405234801561001057600080fd5b506001806000806101000a81548160ff021916908315150217905550801561003a57426001819055505b50610c4e8061004a6000396000f3fe608060405234801561001057600080fd5b506004361061009e5760003560e01c806390978d1b1161006657806390978d1b146101455780639381a34514610175578063a03e881a14610193578063b555d608146101c3578063c9280f06146101e15761009e565b8063051fd48c146100a357806310a7e201146100bf57806322f8e566146100db57806329cb924d146100f757806368ad8ae314610115575b600080fd5b6100bd60048036036100b891908101906108f1565b610211565b005b6100d960048036036100d4919081019061088c565b610411565b005b6100f560048036036100f09190810190610940565b610466565b005b6100ff610488565b60405161010c9190610b37565b60405180910390f35b61012f600480360361012a91908101906108b5565b6104af565b60405161013c9190610b37565b60405180910390f35b61015f600480360361015a919081019061088c565b610651565b60405161016c9190610ae1565b60405180910390f35b61017d61067b565b60405161018a9190610ae1565b60405180910390f35b6101ad60048036036101a891908101906108b5565b61068d565b6040516101ba9190610ae1565b60405180910390f35b6101cb6106fc565b6040516101d89190610abf565b60405180910390f35b6101fb60048036036101f691908101906108b5565b61076f565b6040516102089190610afc565b60405180910390f35b6040518060600160405280600115158152602001828152602001610233610488565b81525060036000858152602001908152602001600020600084815260200190815260200160002060008201518160000160006101000a81548160ff0219169083151502179055506020820151816001015560408201518160020155905050600060046000858152602001908152602001600020600084815260200190815260200160002090508060000160009054906101000a900460ff1661030a576040517f08c379a000000000000000000000000000000000000000000000000000000000815260040161030190610b17565b60405180910390fd5b600081600101549050600460008681526020019081526020016000206000858152602001908152602001600020600080820160006101000a81549060ff021916905560018201600090555050600060016005805490500390508181146103f25760006005828154811061037957fe5b906000526020600020906002020190508260046000836000015481526020019081526020016000206000836001015481526020019081526020016000206001018190555080600584815481106103cb57fe5b90600052602060002090600202016000820154816000015560018201548160010155905050505b60016005805490500360058161040891906107ec565b50505050505050565b6002600082815260200190815260200160002060009054906101000a900460ff166104635760016002600083815260200190815260200160002060006101000a81548160ff0219169083151502179055505b50565b6000809054906101000a900460ff1661047e57600080fd5b8060018190555050565b60008060009054906101000a900460ff16156104a85760015490506104ac565b4290505b90565b60006002600084815260200190815260200160002060009054906101000a900460ff166104db57600080fd5b600060036000858152602001908152602001600020600084815260200190815260200160002090508060000160009054906101000a900460ff161561052457600091505061064b565b60046000858152602001908152602001600020600084815260200190815260200160002060000160009054906101000a900460ff16156105735762093a8061056a610488565b0191505061064b565b604051806040016040528060011515815260200160058054905081525060046000868152602001908152602001600020600085815260200190815260200160002060008201518160000160006101000a81548160ff02191690831515021790555060208201518160010155905050600560405180604001604052808681526020018581525090806001815401808255809150509060018203906000526020600020906002020160009091929091909150600082015181600001556020820151816001015550505062093a80610646610488565b019150505b92915050565b60006002600083815260200190815260200160002060009054906101000a900460ff169050919050565b6000809054906101000a900460ff1681565b60006002600084815260200190815260200160002060009054906101000a900460ff166106b957600080fd5b600060036000858152602001908152602001600020600084815260200190815260200160002090508060000160009054906101000a900460ff1691505092915050565b60606005805480602002602001604051908101604052809291908181526020016000905b8282101561076657838290600052602060002090600202016040518060400160405290816000820154815260200160018201548152505081526020019060010190610720565b50505050905090565b60006002600084815260200190815260200160002060009054906101000a900460ff1661079b57600080fd5b600060036000858152602001908152602001600020600084815260200190815260200160002090508060000160009054906101000a900460ff166107de57600080fd5b806001015491505092915050565b81548183558181111561081957600202816002028360005260206000209182019101610818919061081e565b5b505050565b61084a91905b8082111561084657600080820160009055600182016000905550600201610824565b5090565b90565b60008135905061085c81610bc6565b92915050565b60008135905061087181610bdd565b92915050565b60008135905061088681610bf4565b92915050565b60006020828403121561089e57600080fd5b60006108ac8482850161084d565b91505092915050565b600080604083850312156108c857600080fd5b60006108d68582860161084d565b92505060206108e785828601610877565b9150509250929050565b60008060006060848603121561090657600080fd5b60006109148682870161084d565b935050602061092586828701610877565b925050604061093686828701610862565b9150509250925092565b60006020828403121561095257600080fd5b600061096084828501610877565b91505092915050565b60006109758383610a72565b60408301905092915050565b600061098c82610b62565b6109968185610b7a565b93506109a183610b52565b8060005b838110156109d25781516109b98882610969565b97506109c483610b6d565b9250506001810190506109a5565b5085935050505092915050565b6109e881610b9c565b82525050565b6109f781610ba8565b82525050565b610a0681610bb2565b82525050565b6000610a19602d83610b8b565b91507f43616e2774207075736820707269636573207468617420686176656e2774206260008301527f65656e20726571756573746564000000000000000000000000000000000000006020830152604082019050919050565b604082016000820151610a8860008501826109ee565b506020820151610a9b6020850182610aa1565b50505050565b610aaa81610bbc565b82525050565b610ab981610bbc565b82525050565b60006020820190508181036000830152610ad98184610981565b905092915050565b6000602082019050610af660008301846109df565b92915050565b6000602082019050610b1160008301846109fd565b92915050565b60006020820190508181036000830152610b3081610a0c565b9050919050565b6000602082019050610b4c6000830184610ab0565b92915050565b6000819050602082019050919050565b600081519050919050565b6000602082019050919050565b600082825260208201905092915050565b600082825260208201905092915050565b60008115159050919050565b6000819050919050565b6000819050919050565b6000819050919050565b610bcf81610ba8565b8114610bda57600080fd5b50565b610be681610bb2565b8114610bf157600080fd5b50565b610bfd81610bbc565b8114610c0857600080fd5b5056fea365627a7a7231582013f515c3c2d6bf2ba683227359a2a0a652f0c924cf738376292eb5b09b3e861f6c6578706572696d656e74616cf564736f6c634300050d0040",
  "source": "pragma solidity ^0.5.0;\n\npragma experimental ABIEncoderV2;\n\nimport \"../OracleInterface.sol\";\nimport \"../Testable.sol\";\n\n\n// A mock oracle used for testing.\ncontract MockOracle is OracleInterface, Testable {\n\n    // This contract doesn't implement the voting routine, and naively indicates that all requested prices will be\n    // available in a week.\n    uint constant private SECONDS_IN_WEEK = 60*60*24*7;\n\n    // Represents an available price. Have to keep a separate bool to allow for price=0.\n    struct Price {\n        bool isAvailable;\n        int price;\n        // Time the verified price became available.\n        uint verifiedTime;\n    }\n\n    // The two structs below are used in an array and mapping to keep track of prices that have been requested but are\n    // not yet available.\n    struct QueryIndex {\n        bool isValid;\n        uint index;\n    }\n\n    // Represents a (identifier, time) point that has been queried.\n    struct QueryPoint {\n        bytes32 identifier;\n        uint time;\n    }\n\n    // The set of identifiers the oracle can provide verified prices for.\n    mapping(bytes32 => bool) private supportedIdentifiers;\n\n    // Conceptually we want a (time, identifier) -> price map.\n    mapping(bytes32 => mapping(uint => Price)) private verifiedPrices;\n\n    // The mapping and array allow retrieving all the elements in a mapping and finding/deleting elements.\n    // Can we generalize this data structure?\n    mapping(bytes32 => mapping(uint => QueryIndex)) private queryIndices;\n    QueryPoint[] private requestedPrices;\n\n    // solhint-disable-next-line no-empty-blocks\n    constructor() public Testable(true) {}\n\n    // Enqueues a request (if a request isn't already present) for the given (identifier, time) pair.\n    function requestPrice(bytes32 identifier, uint time) external returns (uint expectedTime) {\n        require(supportedIdentifiers[identifier]);\n        Price storage lookup = verifiedPrices[identifier][time];\n        if (lookup.isAvailable) {\n            // We already have a price, return 0 to indicate that.\n            return 0;\n        } else if (queryIndices[identifier][time].isValid) {\n            // We already have a pending query, don't need to do anything.\n            return getCurrentTime() + SECONDS_IN_WEEK;\n        } else {\n            // New query, enqueue it for review.\n            queryIndices[identifier][time] = QueryIndex(true, requestedPrices.length);\n            requestedPrices.push(QueryPoint(identifier, time));\n            return getCurrentTime() + SECONDS_IN_WEEK;\n        }\n    }\n\n    // Pushes the verified price for a requested query.\n    function pushPrice(bytes32 identifier, uint time, int price) external {\n        verifiedPrices[identifier][time] = Price(true, price, getCurrentTime());\n\n        QueryIndex storage queryIndex = queryIndices[identifier][time];\n        require(queryIndex.isValid, \"Can't push prices that haven't been requested\");\n        // Delete from the array. Instead of shifting the queries over, replace the contents of `indexToReplace` with\n        // the contents of the last index (unless it is the last index).\n        uint indexToReplace = queryIndex.index;\n        delete queryIndices[identifier][time];\n        uint lastIndex = requestedPrices.length - 1;\n        if (lastIndex != indexToReplace) {\n            QueryPoint storage queryToCopy = requestedPrices[lastIndex];\n            queryIndices[queryToCopy.identifier][queryToCopy.time].index = indexToReplace;\n            requestedPrices[indexToReplace] = queryToCopy;\n        }\n        requestedPrices.length = requestedPrices.length - 1;\n    }\n\n    // Adds the provided identifier as a supported identifier.\n    function addSupportedIdentifier(bytes32 identifier) external {\n        if (!supportedIdentifiers[identifier]) {\n            supportedIdentifiers[identifier] = true;\n        }\n    }\n\n    // Checks whether a price has been resolved.\n    function hasPrice(bytes32 identifier, uint time) external view returns (bool hasPriceAvailable) {\n        require(supportedIdentifiers[identifier]);\n        Price storage lookup = verifiedPrices[identifier][time];\n        return lookup.isAvailable;\n    }\n\n    // Gets a price that has already been resolved.\n    function getPrice(bytes32 identifier, uint time) external view returns (int price) {\n        require(supportedIdentifiers[identifier]);\n        Price storage lookup = verifiedPrices[identifier][time];\n        require(lookup.isAvailable);\n        return lookup.price;\n    }\n\n    // Gets the queries that still need verified prices.\n    function getPendingQueries() external view returns (QueryPoint[] memory queryPoints) {\n        return requestedPrices;\n    }\n\n    // Whether the oracle provides verified prices for the provided identifier.\n    function isIdentifierSupported(bytes32 identifier) external view returns (bool isSupported) {\n        return supportedIdentifiers[identifier];\n    }\n}\n",
  "sourcePath": "/home/mattczernik/Workspace/uma/protocol/core/contracts/test/MockOracle.sol",
  "compiler": {
    "name": "solc",
    "version": "0.5.13+commit.5b0b510c.Emscripten.clang"
  },
  "schemaVersion": "3.0.16",
  "updatedAt": "2019-11-30T00:32:29.171Z",
  "devdoc": {
    "methods": {
      "setCurrentTime(uint256)": {
        "details": "Will revert if not running in test mode."
      }
    }
  },
  "userdoc": {
    "methods": {
      "getCurrentTime()": {
        "notice": "Gets the current time. Will return the last time set in `setCurrentTime` if running in test mode. Otherwise, it will return the block timestamp."
      },
      "setCurrentTime(uint256)": {
        "notice": "Sets the current time."
      }
    }
  }
}