{
  "contractName": "Registry",
  "abi": [
    {
      "inputs": [],
      "payable": false,
      "stateMutability": "nonpayable",
      "type": "constructor"
    },
    {
      "anonymous": false,
      "inputs": [
        {
          "indexed": true,
          "internalType": "address",
          "name": "derivativeAddress",
          "type": "address"
        },
        {
          "indexed": false,
          "internalType": "address[]",
          "name": "parties",
          "type": "address[]"
        }
      ],
      "name": "NewDerivativeRegistered",
      "type": "event"
    },
    {
      "constant": false,
      "inputs": [
        {
          "internalType": "uint256",
          "name": "roleId",
          "type": "uint256"
        },
        {
          "internalType": "address",
          "name": "newMember",
          "type": "address"
        }
      ],
      "name": "addMember",
      "outputs": [],
      "payable": false,
      "stateMutability": "nonpayable",
      "type": "function"
    },
    {
      "constant": true,
      "inputs": [
        {
          "internalType": "uint256",
          "name": "roleId",
          "type": "uint256"
        }
      ],
      "name": "getMember",
      "outputs": [
        {
          "internalType": "address",
          "name": "",
          "type": "address"
        }
      ],
      "payable": false,
      "stateMutability": "view",
      "type": "function"
    },
    {
      "constant": true,
      "inputs": [
        {
          "internalType": "uint256",
          "name": "roleId",
          "type": "uint256"
        },
        {
          "internalType": "address",
          "name": "memberToCheck",
          "type": "address"
        }
      ],
      "name": "holdsRole",
      "outputs": [
        {
          "internalType": "bool",
          "name": "",
          "type": "bool"
        }
      ],
      "payable": false,
      "stateMutability": "view",
      "type": "function"
    },
    {
      "constant": false,
      "inputs": [
        {
          "internalType": "uint256",
          "name": "roleId",
          "type": "uint256"
        },
        {
          "internalType": "address",
          "name": "memberToRemove",
          "type": "address"
        }
      ],
      "name": "removeMember",
      "outputs": [],
      "payable": false,
      "stateMutability": "nonpayable",
      "type": "function"
    },
    {
      "constant": false,
      "inputs": [
        {
          "internalType": "uint256",
          "name": "roleId",
          "type": "uint256"
        },
        {
          "internalType": "address",
          "name": "newMember",
          "type": "address"
        }
      ],
      "name": "resetMember",
      "outputs": [],
      "payable": false,
      "stateMutability": "nonpayable",
      "type": "function"
    },
    {
      "constant": false,
      "inputs": [
        {
          "internalType": "address[]",
          "name": "parties",
          "type": "address[]"
        },
        {
          "internalType": "address",
          "name": "derivativeAddress",
          "type": "address"
        }
      ],
      "name": "registerDerivative",
      "outputs": [],
      "payable": false,
      "stateMutability": "nonpayable",
      "type": "function"
    },
    {
      "constant": true,
      "inputs": [
        {
          "internalType": "address",
          "name": "derivative",
          "type": "address"
        }
      ],
      "name": "isDerivativeRegistered",
      "outputs": [
        {
          "internalType": "bool",
          "name": "isRegistered",
          "type": "bool"
        }
      ],
      "payable": false,
      "stateMutability": "view",
      "type": "function"
    },
    {
      "constant": true,
      "inputs": [
        {
          "internalType": "address",
          "name": "party",
          "type": "address"
        }
      ],
      "name": "getRegisteredDerivatives",
      "outputs": [
        {
          "components": [
            {
              "internalType": "address",
              "name": "derivativeAddress",
              "type": "address"
            },
            {
              "internalType": "address",
              "name": "derivativeCreator",
              "type": "address"
            }
          ],
          "internalType": "struct RegistryInterface.RegisteredDerivative[]",
          "name": "derivatives",
          "type": "tuple[]"
        }
      ],
      "payable": false,
      "stateMutability": "view",
      "type": "function"
    },
    {
      "constant": true,
      "inputs": [],
      "name": "getAllRegisteredDerivatives",
      "outputs": [
        {
          "components": [
            {
              "internalType": "address",
              "name": "derivativeAddress",
              "type": "address"
            },
            {
              "internalType": "address",
              "name": "derivativeCreator",
              "type": "address"
            }
          ],
          "internalType": "struct RegistryInterface.RegisteredDerivative[]",
          "name": "derivatives",
          "type": "tuple[]"
        }
      ],
      "payable": false,
      "stateMutability": "view",
      "type": "function"
    }
  ],
  "bytecode": "0x60806040523480156200001157600080fd5b506200003f600060028111156200002457fe5b600060028111156200003257fe5b33620000cf60201b60201c565b6200006c600160028111156200005157fe5b600060028111156200005f57fe5b33620000cf60201b60201c565b620000c96002808111156200007d57fe5b600160028111156200008b57fe5b6000604051908082528060200260200182016040528015620000bc5781602001602082028038833980820191505090505b506200023b60201b60201c565b62000731565b8260006002811115620000de57fe5b60008083815260200190815260200160002060010160009054906101000a900460ff1660028111156200010d57fe5b1462000150576040517f08c379a00000000000000000000000000000000000000000000000000000000081526004016200014790620006ba565b60405180910390fd5b6000806000868152602001908152602001600020905060018160010160006101000a81548160ff021916908360028111156200018857fe5b0217905550838160000181905550620001b38382600201620003a760201b620019c91790919060201c565b60006002811115620001c157fe5b60008086815260200190815260200160002060010160009054906101000a900460ff166002811115620001f057fe5b141562000234576040517f08c379a00000000000000000000000000000000000000000000000000000000081526004016200022b9062000698565b60405180910390fd5b5050505050565b82600060028111156200024a57fe5b60008083815260200190815260200160002060010160009054906101000a900460ff1660028111156200027957fe5b14620002bc576040517f08c379a0000000000000000000000000000000000000000000000000000000008152600401620002b390620006ba565b60405180910390fd5b6000806000868152602001908152602001600020905060028160010160006101000a81548160ff02191690836002811115620002f457fe5b02179055508381600001819055506200031f8382600301620003bd60201b620019d71790919060201c565b600060028111156200032d57fe5b60008086815260200190815260200160002060010160009054906101000a900460ff1660028111156200035c57fe5b1415620003a0576040517f08c379a00000000000000000000000000000000000000000000000000000000081526004016200039790620006fe565b60405180910390fd5b5050505050565b620003b982826200040660201b60201c565b5050565b60008090505b81518110156200040157620003f383838381518110620003df57fe5b6020026020010151620004c060201b60201c565b8080600101915050620003c3565b505050565b600073ffffffffffffffffffffffffffffffffffffffff168173ffffffffffffffffffffffffffffffffffffffff16141562000479576040517f08c379a00000000000000000000000000000000000000000000000000000000081526004016200047090620006dc565b60405180910390fd5b808260000160006101000a81548173ffffffffffffffffffffffffffffffffffffffff021916908373ffffffffffffffffffffffffffffffffffffffff1602179055505050565b60018260000160008373ffffffffffffffffffffffffffffffffffffffff1673ffffffffffffffffffffffffffffffffffffffff16815260200190815260200160002060006101000a81548160ff0219169083151502179055505050565b60006200052d603c8362000720565b91507f417474656d7074656420746f2075736520616e20696e76616c696420726f6c6560008301527f20746f206d616e61676520616e206578636c757369766520726f6c65000000006020830152604082019050919050565b600062000595601e8362000720565b91507f43616e6e6f74207573652061207072652d6578697374696e6720726f6c6500006000830152602082019050919050565b6000620005d760238362000720565b91507f43616e6e6f742073657420616e206578636c757369766520726f6c6520746f2060008301527f30783000000000000000000000000000000000000000000000000000000000006020830152604082019050919050565b60006200063f60388362000720565b91507f417474656d7074656420746f2075736520616e20696e76616c696420726f6c6560008301527f20746f206d616e61676520612073686172656420726f6c6500000000000000006020830152604082019050919050565b60006020820190508181036000830152620006b3816200051e565b9050919050565b60006020820190508181036000830152620006d58162000586565b9050919050565b60006020820190508181036000830152620006f781620005c8565b9050919050565b60006020820190508181036000830152620007198162000630565b9050919050565b600082825260208201905092915050565b611a5880620007416000396000f3fe608060405234801561001057600080fd5b50600436106100935760003560e01c80637cdc1cb9116100665780637cdc1cb91461011e5780638014b1dc1461014e5780638a3ca36b1461016a578063ab3545e51461019a578063d97c05be146101ca57610093565b806335a027a014610098578063647fcf18146100c85780636be7658b146100e657806374d0a67614610102575b600080fd5b6100b260048036036100ad919081019061126a565b6101e6565b6040516100bf9190611793565b60405180910390f35b6100d06104b4565b6040516100dd9190611793565b60405180910390f35b61010060048036036100fb9190810190611314565b6105bf565b005b61011c60048036036101179190810190611314565b6106c6565b005b61013860048036036101339190810190611314565b6107cd565b60405161014591906117b5565b60405180910390f35b61016860048036036101639190810190611293565b6108c8565b005b610184600480360361017f919081019061126a565b610c92565b60405161019191906117b5565b60405180910390f35b6101b460048036036101af91908101906112eb565b610d03565b6040516101c19190611756565b60405180910390f35b6101e460048036036101df9190810190611314565b610da6565b005b60608060018054905060405190808252806020026020018201604052801561022857816020015b6102156111b0565b81526020019060019003908161020d5790505b509050600080905060008090505b60018054905081101561041a5760006001828154811061025257fe5b90600052602060002090600202019050600360008260000160009054906101000a900473ffffffffffffffffffffffffffffffffffffffff1673ffffffffffffffffffffffffffffffffffffffff1673ffffffffffffffffffffffffffffffffffffffff16815260200190815260200160002060000160008773ffffffffffffffffffffffffffffffffffffffff1673ffffffffffffffffffffffffffffffffffffffff16815260200190815260200160002060009054906101000a900460ff16156103fe57806040518060400160405290816000820160009054906101000a900473ffffffffffffffffffffffffffffffffffffffff1673ffffffffffffffffffffffffffffffffffffffff1673ffffffffffffffffffffffffffffffffffffffff1681526020016001820160009054906101000a900473ffffffffffffffffffffffffffffffffffffffff1673ffffffffffffffffffffffffffffffffffffffff1673ffffffffffffffffffffffffffffffffffffffff16815250508484815181106103dc57fe5b60200260200101819052506103fb600184610eae90919063ffffffff16565b92505b50610413600182610eae90919063ffffffff16565b9050610236565b508060405190808252806020026020018201604052801561045557816020015b6104426111b0565b81526020019060019003908161043a5790505b50925060008090505b818110156104ac5782818151811061047257fe5b602002602001015184828151811061048657fe5b60200260200101819052506104a5600182610eae90919063ffffffff16565b905061045e565b505050919050565b60606001805480602002602001604051908101604052809291908181526020016000905b828210156105b657838290600052602060002090600202016040518060400160405290816000820160009054906101000a900473ffffffffffffffffffffffffffffffffffffffff1673ffffffffffffffffffffffffffffffffffffffff1673ffffffffffffffffffffffffffffffffffffffff1681526020016001820160009054906101000a900473ffffffffffffffffffffffffffffffffffffffff1673ffffffffffffffffffffffffffffffffffffffff1673ffffffffffffffffffffffffffffffffffffffff1681525050815260200190600101906104d8565b50505050905090565b816002808111156105cc57fe5b60008083815260200190815260200160002060010160009054906101000a900460ff1660028111156105fa57fe5b1461063a576040517f08c379a000000000000000000000000000000000000000000000000000000000815260040161063190611830565b60405180910390fd5b8261065a60008083815260200190815260200160002060000154336107cd565b610699576040517f08c379a000000000000000000000000000000000000000000000000000000000815260040161069090611890565b60405180910390fd5b6106c083600080878152602001908152602001600020600301610f0390919063ffffffff16565b50505050565b816002808111156106d357fe5b60008083815260200190815260200160002060010160009054906101000a900460ff16600281111561070157fe5b14610741576040517f08c379a000000000000000000000000000000000000000000000000000000000815260040161073890611830565b60405180910390fd5b8261076160008083815260200190815260200160002060000154336107cd565b6107a0576040517f08c379a000000000000000000000000000000000000000000000000000000000815260040161079790611890565b60405180910390fd5b6107c783600080878152602001908152602001600020600301610f6190919063ffffffff16565b50505050565b6000806000808581526020019081526020016000209050600160028111156107f157fe5b8160010160009054906101000a900460ff16600281111561080e57fe5b14156108325761082a8382600201610fbf90919063ffffffff16565b9150506108c2565b60028081111561083e57fe5b8160010160009054906101000a900460ff16600281111561085b57fe5b141561087f57610877838260030161101c90919063ffffffff16565b9150506108c2565b60006108c0576040517f08c379a00000000000000000000000000000000000000000000000000000000081526004016108b7906118b0565b60405180910390fd5b505b92915050565b6002808111156108d457fe5b6108de81336107cd565b61091d576040517f08c379a000000000000000000000000000000000000000000000000000000000815260040161091490611850565b60405180910390fd5b6000600260008473ffffffffffffffffffffffffffffffffffffffff1673ffffffffffffffffffffffffffffffffffffffff16815260200190815260200160002090506000600181111561096d57fe5b8160000160009054906101000a900460ff16600181111561098a57fe5b1461099457600080fd5b60018160000160006101000a81548160ff021916908360018111156109b557fe5b0217905550600160405180604001604052808573ffffffffffffffffffffffffffffffffffffffff1681526020013373ffffffffffffffffffffffffffffffffffffffff168152509080600181540180825580915050906001820390600052602060002090600202016000909192909190915060008201518160000160006101000a81548173ffffffffffffffffffffffffffffffffffffffff021916908373ffffffffffffffffffffffffffffffffffffffff16021790555060208201518160010160006101000a81548173ffffffffffffffffffffffffffffffffffffffff021916908373ffffffffffffffffffffffffffffffffffffffff160217905550505050610ad16001808054905061107590919063ffffffff16565b8160000160016101000a8154816fffffffffffffffffffffffffffffffff02191690836fffffffffffffffffffffffffffffffff1602179055506000600360008573ffffffffffffffffffffffffffffffffffffffff1673ffffffffffffffffffffffffffffffffffffffff168152602001908152602001600020905060008090505b86869050811015610bf4576001826000016000898985818110610b7357fe5b9050602002016020610b88919081019061126a565b73ffffffffffffffffffffffffffffffffffffffff1673ffffffffffffffffffffffffffffffffffffffff16815260200190815260200160002060006101000a81548160ff021916908315150217905550610bed600182610eae90919063ffffffff16565b9050610b54565b506060868680806020026020016040519081016040528093929190818152602001838360200280828437600081840152601f19601f8201169050808301925050505050505090508473ffffffffffffffffffffffffffffffffffffffff167f3c9a95db69d040dd58824943e68236c0adf4b014d11d6c24c513533888f939eb82604051610c819190611771565b60405180910390a250505050505050565b6000600180811115610ca057fe5b600260008473ffffffffffffffffffffffffffffffffffffffff1673ffffffffffffffffffffffffffffffffffffffff16815260200190815260200160002060000160009054906101000a900460ff166001811115610cfb57fe5b149050919050565b60008160016002811115610d1357fe5b60008083815260200190815260200160002060010160009054906101000a900460ff166002811115610d4157fe5b14610d81576040517f08c379a0000000000000000000000000000000000000000000000000000000008152600401610d78906117f0565b60405180910390fd5b610d9e6000808581526020019081526020016000206002016110cb565b915050919050565b8160016002811115610db457fe5b60008083815260200190815260200160002060010160009054906101000a900460ff166002811115610de257fe5b14610e22576040517f08c379a0000000000000000000000000000000000000000000000000000000008152600401610e19906117f0565b60405180910390fd5b82610e4260008083815260200190815260200160002060000154336107cd565b610e81576040517f08c379a0000000000000000000000000000000000000000000000000000000008152600401610e7890611890565b60405180910390fd5b610ea8836000808781526020019081526020016000206002016110f990919063ffffffff16565b50505050565b600080828401905083811015610ef9576040517f08c379a0000000000000000000000000000000000000000000000000000000008152600401610ef0906117d0565b60405180910390fd5b8091505092915050565b60008260000160008373ffffffffffffffffffffffffffffffffffffffff1673ffffffffffffffffffffffffffffffffffffffff16815260200190815260200160002060006101000a81548160ff0219169083151502179055505050565b60018260000160008373ffffffffffffffffffffffffffffffffffffffff1673ffffffffffffffffffffffffffffffffffffffff16815260200190815260200160002060006101000a81548160ff0219169083151502179055505050565b60008173ffffffffffffffffffffffffffffffffffffffff168360000160009054906101000a900473ffffffffffffffffffffffffffffffffffffffff1673ffffffffffffffffffffffffffffffffffffffff1614905092915050565b60008260000160008373ffffffffffffffffffffffffffffffffffffffff1673ffffffffffffffffffffffffffffffffffffffff16815260200190815260200160002060009054906101000a900460ff16905092915050565b6000828211156110ba576040517f08c379a00000000000000000000000000000000000000000000000000000000081526004016110b190611810565b60405180910390fd5b600082840390508091505092915050565b60008160000160009054906101000a900473ffffffffffffffffffffffffffffffffffffffff169050919050565b600073ffffffffffffffffffffffffffffffffffffffff168173ffffffffffffffffffffffffffffffffffffffff161415611169576040517f08c379a000000000000000000000000000000000000000000000000000000000815260040161116090611870565b60405180910390fd5b808260000160006101000a81548173ffffffffffffffffffffffffffffffffffffffff021916908373ffffffffffffffffffffffffffffffffffffffff1602179055505050565b6040518060400160405280600073ffffffffffffffffffffffffffffffffffffffff168152602001600073ffffffffffffffffffffffffffffffffffffffff1681525090565b6000813590506112058161199b565b92915050565b60008083601f84011261121d57600080fd5b8235905067ffffffffffffffff81111561123657600080fd5b60208301915083602082028301111561124e57600080fd5b9250929050565b600081359050611264816119b2565b92915050565b60006020828403121561127c57600080fd5b600061128a848285016111f6565b91505092915050565b6000806000604084860312156112a857600080fd5b600084013567ffffffffffffffff8111156112c257600080fd5b6112ce8682870161120b565b935093505060206112e1868287016111f6565b9150509250925092565b6000602082840312156112fd57600080fd5b600061130b84828501611255565b91505092915050565b6000806040838503121561132757600080fd5b600061133585828601611255565b9250506020611346858286016111f6565b9150509250929050565b600061135c8383611380565b60208301905092915050565b60006113748383611727565b60408301905092915050565b61138981611953565b82525050565b61139881611953565b82525050565b60006113a9826118f0565b6113b38185611920565b93506113be836118d0565b8060005b838110156113ef5781516113d68882611350565b97506113e183611906565b9250506001810190506113c2565b5085935050505092915050565b6000611407826118fb565b6114118185611931565b935061141c836118e0565b8060005b8381101561144d5781516114348882611368565b975061143f83611913565b925050600181019050611420565b5085935050505092915050565b61146381611965565b82525050565b6000611476601b83611942565b91507f536166654d6174683a206164646974696f6e206f766572666c6f7700000000006000830152602082019050919050565b60006114b6602f83611942565b91507f4d7573742062652063616c6c6564206f6e20616e20696e697469616c697a656460008301527f204578636c757369766520726f6c6500000000000000000000000000000000006020830152604082019050919050565b600061151c601e83611942565b91507f536166654d6174683a207375627472616374696f6e206f766572666c6f7700006000830152602082019050919050565b600061155c602c83611942565b91507f4d7573742062652063616c6c6564206f6e20616e20696e697469616c697a656460008301527f2053686172656420726f6c6500000000000000000000000000000000000000006020830152604082019050919050565b60006115c2602283611942565b91507f53656e64657220646f6573206e6f7420686f6c6420726571756972656420726f60008301527f6c650000000000000000000000000000000000000000000000000000000000006020830152604082019050919050565b6000611628602383611942565b91507f43616e6e6f742073657420616e206578636c757369766520726f6c6520746f2060008301527f30783000000000000000000000000000000000000000000000000000000000006020830152604082019050919050565b600061168e602483611942565b91507f43616e206f6e6c792062652063616c6c6564206279206120726f6c65206d616e60008301527f61676572000000000000000000000000000000000000000000000000000000006020830152604082019050919050565b60006116f4600e83611942565b91507f496e76616c696420726f6c6549640000000000000000000000000000000000006000830152602082019050919050565b60408201600082015161173d6000850182611380565b5060208201516117506020850182611380565b50505050565b600060208201905061176b600083018461138f565b92915050565b6000602082019050818103600083015261178b818461139e565b905092915050565b600060208201905081810360008301526117ad81846113fc565b905092915050565b60006020820190506117ca600083018461145a565b92915050565b600060208201905081810360008301526117e981611469565b9050919050565b60006020820190508181036000830152611809816114a9565b9050919050565b600060208201905081810360008301526118298161150f565b9050919050565b600060208201905081810360008301526118498161154f565b9050919050565b60006020820190508181036000830152611869816115b5565b9050919050565b600060208201905081810360008301526118898161161b565b9050919050565b600060208201905081810360008301526118a981611681565b9050919050565b600060208201905081810360008301526118c9816116e7565b9050919050565b6000819050602082019050919050565b6000819050602082019050919050565b600081519050919050565b600081519050919050565b6000602082019050919050565b6000602082019050919050565b600082825260208201905092915050565b600082825260208201905092915050565b600082825260208201905092915050565b600061195e82611971565b9050919050565b60008115159050919050565b600073ffffffffffffffffffffffffffffffffffffffff82169050919050565b6000819050919050565b6119a481611953565b81146119af57600080fd5b50565b6119bb81611991565b81146119c657600080fd5b50565b6119d382826110f9565b5050565b60008090505b8151811015611a1057611a03838383815181106119f657fe5b6020026020010151610f61565b80806001019150506119dd565b50505056fea365627a7a72315820e451889afa346042bc535a76539f2d4115baa1252b4581902255256319f87ef76c6578706572696d656e74616cf564736f6c634300050d0040",
  "source": "pragma solidity ^0.5.0;\n\nimport \"./MultiRole.sol\";\nimport \"./RegistryInterface.sol\";\n\nimport \"openzeppelin-solidity/contracts/math/SafeMath.sol\";\n\npragma experimental ABIEncoderV2;\n\n\n/**\n * @title Registry for derivatives and approved derivative creators.\n * @dev Maintains a whitelist of derivative creators that are allowed to register new derivatives.\n */\ncontract Registry is RegistryInterface, MultiRole {\n\n    using SafeMath for uint;\n\n    enum Roles {\n        // The ultimate owner-type role that can change the writer.\n        Governance,\n        // Can add or remove DerivativeCreators.\n        Writer,\n        // Can register derivatives.\n        DerivativeCreator\n    }\n\n    // Array of all registeredDerivatives that are approved to use the UMA Oracle.\n    RegisteredDerivative[] private registeredDerivatives;\n\n    // This enum is required because a WasValid state is required to ensure that derivatives cannot be re-registered.\n    enum PointerValidity {\n        Invalid,\n        Valid\n    }\n\n    struct Pointer {\n        PointerValidity valid;\n        uint128 index;\n    }\n\n    // Maps from derivative address to a pointer that refers to that RegisteredDerivative in registeredDerivatives.\n    mapping(address => Pointer) private derivativePointers;\n\n    // Note: this must be stored outside of the RegisteredDerivative because mappings cannot be deleted and copied\n    // like normal data. This could be stored in the Pointer struct, but storing it there would muddy the purpose\n    // of the Pointer struct and break separation of concern between referential data and data.\n    struct PartiesMap {\n        mapping(address => bool) parties;\n    }\n\n    // Maps from derivative address to the set of parties that are involved in that derivative.\n    mapping(address => PartiesMap) private derivativesToParties;\n\n    event NewDerivativeRegistered(address indexed derivativeAddress, address[] parties);\n\n    constructor() public {\n        _createExclusiveRole(uint(Roles.Governance), uint(Roles.Governance), msg.sender);\n        _createExclusiveRole(uint(Roles.Writer), uint(Roles.Governance), msg.sender);\n        // Start with no derivative creators registered.\n        _createSharedRole(uint(Roles.DerivativeCreator), uint(Roles.Writer), new address[](0));\n    }\n\n    function registerDerivative(address[] calldata parties, address derivativeAddress)\n        external\n        onlyRoleHolder(uint(Roles.DerivativeCreator))\n    {\n        // Create derivative pointer.\n        Pointer storage pointer = derivativePointers[derivativeAddress];\n\n        // Ensure that the pointer was not valid in the past (derivatives cannot be re-registered or double\n        // registered).\n        require(pointer.valid == PointerValidity.Invalid);\n        pointer.valid = PointerValidity.Valid;\n\n        registeredDerivatives.push(RegisteredDerivative(derivativeAddress, msg.sender));\n\n        // No length check necessary because we should never hit (2^127 - 1) derivatives.\n        pointer.index = uint128(registeredDerivatives.length.sub(1));\n\n        // Set up PartiesMap for this derivative.\n        PartiesMap storage partiesMap = derivativesToParties[derivativeAddress];\n        for (uint i = 0; i < parties.length; i = i.add(1)) {\n            partiesMap.parties[parties[i]] = true;\n        }\n\n        address[] memory partiesForEvent = parties;\n        emit NewDerivativeRegistered(derivativeAddress, partiesForEvent);\n    }\n\n    function isDerivativeRegistered(address derivative) external view returns (bool isRegistered) {\n        return derivativePointers[derivative].valid == PointerValidity.Valid;\n    }\n\n    function getRegisteredDerivatives(address party) external view returns (RegisteredDerivative[] memory derivatives) {\n        // This is not ideal - we must statically allocate memory arrays. To be safe, we make a temporary array as long\n        // as registeredDerivatives. We populate it with any derivatives that involve the provided party. Then, we copy\n        // the array over to the return array, which is allocated using the correct size. Note: this is done by double\n        // copying each value rather than storing some referential info (like indices) in memory to reduce the number\n        // of storage reads. This is because storage reads are far more expensive than extra memory space (~100:1).\n        RegisteredDerivative[] memory tmpDerivativeArray = new RegisteredDerivative[](registeredDerivatives.length);\n        uint outputIndex = 0;\n        for (uint i = 0; i < registeredDerivatives.length; i = i.add(1)) {\n            RegisteredDerivative storage derivative = registeredDerivatives[i];\n            if (derivativesToParties[derivative.derivativeAddress].parties[party]) {\n                // Copy selected derivative to the temporary array.\n                tmpDerivativeArray[outputIndex] = derivative;\n                outputIndex = outputIndex.add(1);\n            }\n        }\n\n        // Copy the temp array to the return array that is set to the correct size.\n        derivatives = new RegisteredDerivative[](outputIndex);\n        for (uint j = 0; j < outputIndex; j = j.add(1)) {\n            derivatives[j] = tmpDerivativeArray[j];\n        }\n    }\n\n    function getAllRegisteredDerivatives() external view returns (RegisteredDerivative[] memory derivatives) {\n        return registeredDerivatives;\n    }\n}\n",
  "sourcePath": "/home/mattczernik/Workspace/uma/protocol/core/contracts/Registry.sol",
  "compiler": {
    "name": "solc",
    "version": "0.5.13+commit.5b0b510c.Emscripten.clang"
  },
  "schemaVersion": "3.0.16",
  "updatedAt": "2019-11-30T00:32:29.016Z",
  "devdoc": {
    "details": "Maintains a whitelist of derivative creators that are allowed to register new derivatives.",
    "methods": {
      "addMember(uint256,address)": {
        "details": "Reverts if `roleId` does not represent an initialized, shared role or if the caller is not a member of the managing role for `roleId`."
      },
      "getMember(uint256)": {
        "details": "Reverts if `roleId` does not represent an initialized, exclusive role."
      },
      "holdsRole(uint256,address)": {
        "details": "Reverts if roleId does not correspond to an initialized role."
      },
      "removeMember(uint256,address)": {
        "details": "Reverts if `roleId` does not represent an initialized, shared role or if the caller is not a member of the managing role for `roleId`."
      },
      "resetMember(uint256,address)": {
        "details": "Reverts if the caller is not a member of the managing role for `roleId` or if `roleId` is not an initialized, exclusive role."
      }
    },
    "title": "Registry for derivatives and approved derivative creators."
  },
  "userdoc": {
    "methods": {
      "addMember(uint256,address)": {
        "notice": "Adds `newMember` to the shared role, `roleId`."
      },
      "getMember(uint256)": {
        "notice": "Gets the current holder of the exclusive role, `roleId`."
      },
      "holdsRole(uint256,address)": {
        "notice": "Whether `memberToCheck` is a member of roleId."
      },
      "removeMember(uint256,address)": {
        "notice": "Removes `memberToRemove` from the shared role, `roleId`."
      },
      "resetMember(uint256,address)": {
        "notice": "Changes the exclusive role holder of `roleId` to `newMember`."
      }
    }
  }
}