{
  "contractName": "ResultComputationTest",
  "abi": [
    {
      "constant": true,
      "inputs": [],
      "name": "data",
      "outputs": [
        {
          "components": [
            {
              "internalType": "uint256",
              "name": "rawValue",
              "type": "uint256"
            }
          ],
          "internalType": "struct FixedPoint.Unsigned",
          "name": "totalVotes",
          "type": "tuple"
        },
        {
          "internalType": "int256",
          "name": "currentMode",
          "type": "int256"
        }
      ],
      "payable": false,
      "stateMutability": "view",
      "type": "function"
    },
    {
      "constant": false,
      "inputs": [
        {
          "internalType": "int256",
          "name": "votePrice",
          "type": "int256"
        },
        {
          "internalType": "uint256",
          "name": "numberTokens",
          "type": "uint256"
        }
      ],
      "name": "wrapAddVote",
      "outputs": [],
      "payable": false,
      "stateMutability": "nonpayable",
      "type": "function"
    },
    {
      "constant": true,
      "inputs": [
        {
          "internalType": "uint256",
          "name": "minVoteThreshold",
          "type": "uint256"
        }
      ],
      "name": "wrapGetResolvedPrice",
      "outputs": [
        {
          "internalType": "bool",
          "name": "isResolved",
          "type": "bool"
        },
        {
          "internalType": "int256",
          "name": "price",
          "type": "int256"
        }
      ],
      "payable": false,
      "stateMutability": "view",
      "type": "function"
    },
    {
      "constant": true,
      "inputs": [
        {
          "internalType": "bytes32",
          "name": "revealHash",
          "type": "bytes32"
        }
      ],
      "name": "wrapWasVoteCorrect",
      "outputs": [
        {
          "internalType": "bool",
          "name": "",
          "type": "bool"
        }
      ],
      "payable": false,
      "stateMutability": "view",
      "type": "function"
    },
    {
      "constant": true,
      "inputs": [],
      "name": "wrapGetTotalCorrectlyVotedTokens",
      "outputs": [
        {
          "internalType": "uint256",
          "name": "",
          "type": "uint256"
        }
      ],
      "payable": false,
      "stateMutability": "view",
      "type": "function"
    }
  ],
  "bytecode": "0x608060405234801561001057600080fd5b50610a5b806100206000396000f3fe608060405234801561001057600080fd5b50600436106100575760003560e01c806373d4a13a1461005c578063a3c5fe481461007b578063abba025414610099578063cc15973f146100b5578063fb7da38c146100e6575b600080fd5b610064610116565b604051610072929190610954565b60405180910390f35b61008361013c565b604051610090919061097d565b60405180910390f35b6100b360048036036100ae91908101906106f2565b610151565b005b6100cf60048036036100ca919081019061072e565b610179565b6040516100dd9291906108b0565b60405180910390f35b61010060048036036100fb91908101906106c9565b6101a7565b60405161010d9190610895565b60405180910390f35b600080600101604051806020016040529081600082015481525050908060020154905082565b600061014860006101c4565b60000151905090565b6101758260405180602001604052808481525060006102019092919063ffffffff16565b5050565b60008061019e604051806020016040528085815250600061032890919063ffffffff16565b91509150915091565b60006101bd82600061041190919063ffffffff16565b9050919050565b6101cc610677565b816000016000836002015481526020019081526020016000206040518060200160405290816000820154815250509050919050565b61022c818460010160405180602001604052908160008201548152505061044890919063ffffffff16565b83600101600082015181600001559050506102798184600001600085815260200190815260200160002060405180602001604052908160008201548152505061044890919063ffffffff16565b836000016000848152602001908152602001600020600082015181600001559050508260020154821415801561031457506103138360000160008560020154815260200190815260200160002060405180602001604052908160008201548152505084600001600085815260200190815260200160002060405180602001604052908160008201548152505061048190919063ffffffff16565b5b15610323578183600201819055505b505050565b600080610333610677565b61035060646103426032610496565b6104ce90919063ffffffff16565b905061037d848660010160405180602001604052908160008201548152505061048190919063ffffffff16565b80156103ef57506103ee816103e0876001016040518060200160405290816000820154815250508860000160008a60020154815260200190815260200160002060405180602001604052908160008201548152505061050390919063ffffffff16565b61048190919063ffffffff16565b5b15610404576001925084600201549150610409565b600092505b509250929050565b6000826002015460405160200161042891906108d9565b604051602081830303815290604052805190602001208214905092915050565b610450610677565b60405180602001604052806104768460000151866000015161055690919063ffffffff16565b815250905092915050565b60008160000151836000015111905092915050565b61049e610677565b60405180602001604052806104c4670de0b6b3a7640000856105ab90919063ffffffff16565b8152509050919050565b6104d6610677565b60405180602001604052806104f884866000015161061b90919063ffffffff16565b815250905092915050565b61050b610677565b604051806020016040528061054b846000015161053d670de0b6b3a764000088600001516105ab90919063ffffffff16565b61061b90919063ffffffff16565b815250905092915050565b6000808284019050838110156105a1576040517f08c379a0000000000000000000000000000000000000000000000000000000008152600401610598906108f4565b60405180910390fd5b8091505092915050565b6000808314156105be5760009050610615565b60008284029050828482816105cf57fe5b0414610610576040517f08c379a000000000000000000000000000000000000000000000000000000000815260040161060790610934565b60405180910390fd5b809150505b92915050565b600080821161065f576040517f08c379a000000000000000000000000000000000000000000000000000000000815260040161065690610914565b60405180910390fd5b600082848161066a57fe5b0490508091505092915050565b6040518060200160405280600081525090565b600081359050610699816109d3565b92915050565b6000813590506106ae816109ea565b92915050565b6000813590506106c381610a01565b92915050565b6000602082840312156106db57600080fd5b60006106e98482850161068a565b91505092915050565b6000806040838503121561070557600080fd5b60006107138582860161069f565b9250506020610724858286016106b4565b9150509250929050565b60006020828403121561074057600080fd5b600061074e848285016106b4565b91505092915050565b610760816109a9565b82525050565b61076f816109bf565b82525050565b6000610782601b83610998565b91507f536166654d6174683a206164646974696f6e206f766572666c6f7700000000006000830152602082019050919050565b60006107c2601a83610998565b91507f536166654d6174683a206469766973696f6e206279207a65726f0000000000006000830152602082019050919050565b6000610802602183610998565b91507f536166654d6174683a206d756c7469706c69636174696f6e206f766572666c6f60008301527f77000000000000000000000000000000000000000000000000000000000000006020830152604082019050919050565b6020820160008201516108716000850182610877565b50505050565b610880816109c9565b82525050565b61088f816109c9565b82525050565b60006020820190506108aa6000830184610757565b92915050565b60006040820190506108c56000830185610757565b6108d26020830184610766565b9392505050565b60006020820190506108ee6000830184610766565b92915050565b6000602082019050818103600083015261090d81610775565b9050919050565b6000602082019050818103600083015261092d816107b5565b9050919050565b6000602082019050818103600083015261094d816107f5565b9050919050565b6000604082019050610969600083018561085b565b6109766020830184610766565b9392505050565b60006020820190506109926000830184610886565b92915050565b600082825260208201905092915050565b60008115159050919050565b6000819050919050565b6000819050919050565b6000819050919050565b6109dc816109b5565b81146109e757600080fd5b50565b6109f3816109bf565b81146109fe57600080fd5b50565b610a0a816109c9565b8114610a1557600080fd5b5056fea365627a7a72315820fe404e61645312b681e56ecb597fde975623cee80c7accec65ddbec31ce426a46c6578706572696d656e74616cf564736f6c634300050d0040",
  "source": "pragma solidity ^0.5.0;\n\npragma experimental ABIEncoderV2;\n\nimport \"../ResultComputation.sol\";\nimport \"../FixedPoint.sol\";\n\n\n // Wraps the library ResultComputation for testing purposes.\ncontract ResultComputationTest {\n    using ResultComputation for ResultComputation.Data;\n\n    ResultComputation.Data public data;\n\n    function wrapAddVote(int votePrice, uint numberTokens) external {\n        data.addVote(votePrice, FixedPoint.Unsigned(numberTokens));\n    }\n\n    function wrapGetResolvedPrice(uint minVoteThreshold) external view returns (bool isResolved, int price) {\n        return data.getResolvedPrice(FixedPoint.Unsigned(minVoteThreshold));\n    }\n\n    function wrapWasVoteCorrect(bytes32 revealHash) external view returns (bool) {\n        return data.wasVoteCorrect(revealHash);\n    }\n\n    function wrapGetTotalCorrectlyVotedTokens() external view returns (uint) {\n        return data.getTotalCorrectlyVotedTokens().rawValue;\n    }\n}\n\n",
  "sourcePath": "/home/mattczernik/Workspace/uma/protocol/core/contracts/test/ResultComputationTest.sol",
  "compiler": {
    "name": "solc",
    "version": "0.5.13+commit.5b0b510c.Emscripten.clang"
  },
  "schemaVersion": "3.0.16",
  "updatedAt": "2019-11-30T00:32:29.174Z",
  "devdoc": {
    "methods": {}
  },
  "userdoc": {
    "methods": {}
  }
}