{
  "contractName": "Store",
  "abi": [
    {
      "inputs": [],
      "payable": false,
      "stateMutability": "nonpayable",
      "type": "constructor"
    },
    {
      "anonymous": false,
      "inputs": [
        {
          "components": [
            {
              "internalType": "uint256",
              "name": "rawValue",
              "type": "uint256"
            }
          ],
          "indexed": false,
          "internalType": "struct FixedPoint.Unsigned",
          "name": "newOracleFee",
          "type": "tuple"
        }
      ],
      "name": "NewFixedOracleFeePerSecond",
      "type": "event"
    },
    {
      "constant": false,
      "inputs": [
        {
          "internalType": "uint256",
          "name": "roleId",
          "type": "uint256"
        },
        {
          "internalType": "address",
          "name": "newMember",
          "type": "address"
        }
      ],
      "name": "addMember",
      "outputs": [],
      "payable": false,
      "stateMutability": "nonpayable",
      "type": "function"
    },
    {
      "constant": true,
      "inputs": [
        {
          "internalType": "uint256",
          "name": "roleId",
          "type": "uint256"
        }
      ],
      "name": "getMember",
      "outputs": [
        {
          "internalType": "address",
          "name": "",
          "type": "address"
        }
      ],
      "payable": false,
      "stateMutability": "view",
      "type": "function"
    },
    {
      "constant": true,
      "inputs": [
        {
          "internalType": "uint256",
          "name": "roleId",
          "type": "uint256"
        },
        {
          "internalType": "address",
          "name": "memberToCheck",
          "type": "address"
        }
      ],
      "name": "holdsRole",
      "outputs": [
        {
          "internalType": "bool",
          "name": "",
          "type": "bool"
        }
      ],
      "payable": false,
      "stateMutability": "view",
      "type": "function"
    },
    {
      "constant": false,
      "inputs": [
        {
          "internalType": "uint256",
          "name": "roleId",
          "type": "uint256"
        },
        {
          "internalType": "address",
          "name": "memberToRemove",
          "type": "address"
        }
      ],
      "name": "removeMember",
      "outputs": [],
      "payable": false,
      "stateMutability": "nonpayable",
      "type": "function"
    },
    {
      "constant": false,
      "inputs": [
        {
          "internalType": "uint256",
          "name": "roleId",
          "type": "uint256"
        },
        {
          "internalType": "address",
          "name": "newMember",
          "type": "address"
        }
      ],
      "name": "resetMember",
      "outputs": [],
      "payable": false,
      "stateMutability": "nonpayable",
      "type": "function"
    },
    {
      "constant": false,
      "inputs": [
        {
          "internalType": "uint256",
          "name": "amount",
          "type": "uint256"
        }
      ],
      "name": "withdraw",
      "outputs": [],
      "payable": false,
      "stateMutability": "nonpayable",
      "type": "function"
    },
    {
      "constant": false,
      "inputs": [
        {
          "internalType": "address",
          "name": "erc20Address",
          "type": "address"
        },
        {
          "internalType": "uint256",
          "name": "amount",
          "type": "uint256"
        }
      ],
      "name": "withdrawErc20",
      "outputs": [],
      "payable": false,
      "stateMutability": "nonpayable",
      "type": "function"
    },
    {
      "constant": false,
      "inputs": [],
      "name": "payOracleFees",
      "outputs": [],
      "payable": true,
      "stateMutability": "payable",
      "type": "function"
    },
    {
      "constant": false,
      "inputs": [
        {
          "internalType": "address",
          "name": "erc20Address",
          "type": "address"
        }
      ],
      "name": "payOracleFeesErc20",
      "outputs": [],
      "payable": false,
      "stateMutability": "nonpayable",
      "type": "function"
    },
    {
      "constant": true,
      "inputs": [
        {
          "internalType": "uint256",
          "name": "startTime",
          "type": "uint256"
        },
        {
          "internalType": "uint256",
          "name": "endTime",
          "type": "uint256"
        },
        {
          "components": [
            {
              "internalType": "uint256",
              "name": "rawValue",
              "type": "uint256"
            }
          ],
          "internalType": "struct FixedPoint.Unsigned",
          "name": "pfc",
          "type": "tuple"
        }
      ],
      "name": "computeRegularFee",
      "outputs": [
        {
          "components": [
            {
              "internalType": "uint256",
              "name": "rawValue",
              "type": "uint256"
            }
          ],
          "internalType": "struct FixedPoint.Unsigned",
          "name": "regularFee",
          "type": "tuple"
        },
        {
          "components": [
            {
              "internalType": "uint256",
              "name": "rawValue",
              "type": "uint256"
            }
          ],
          "internalType": "struct FixedPoint.Unsigned",
          "name": "latePenalty",
          "type": "tuple"
        }
      ],
      "payable": false,
      "stateMutability": "view",
      "type": "function"
    },
    {
      "constant": true,
      "inputs": [
        {
          "internalType": "address",
          "name": "currency",
          "type": "address"
        }
      ],
      "name": "computeFinalFee",
      "outputs": [
        {
          "components": [
            {
              "internalType": "uint256",
              "name": "rawValue",
              "type": "uint256"
            }
          ],
          "internalType": "struct FixedPoint.Unsigned",
          "name": "finalFee",
          "type": "tuple"
        }
      ],
      "payable": false,
      "stateMutability": "view",
      "type": "function"
    },
    {
      "constant": false,
      "inputs": [
        {
          "components": [
            {
              "internalType": "uint256",
              "name": "rawValue",
              "type": "uint256"
            }
          ],
          "internalType": "struct FixedPoint.Unsigned",
          "name": "newOracleFee",
          "type": "tuple"
        }
      ],
      "name": "setFixedOracleFeePerSecond",
      "outputs": [],
      "payable": false,
      "stateMutability": "nonpayable",
      "type": "function"
    },
    {
      "constant": false,
      "inputs": [
        {
          "components": [
            {
              "internalType": "uint256",
              "name": "rawValue",
              "type": "uint256"
            }
          ],
          "internalType": "struct FixedPoint.Unsigned",
          "name": "newWeeklyDelayFee",
          "type": "tuple"
        }
      ],
      "name": "setWeeklyDelayFee",
      "outputs": [],
      "payable": false,
      "stateMutability": "nonpayable",
      "type": "function"
    },
    {
      "constant": false,
      "inputs": [
        {
          "internalType": "address",
          "name": "currency",
          "type": "address"
        },
        {
          "components": [
            {
              "internalType": "uint256",
              "name": "rawValue",
              "type": "uint256"
            }
          ],
          "internalType": "struct FixedPoint.Unsigned",
          "name": "finalFee",
          "type": "tuple"
        }
      ],
      "name": "setFinalFee",
      "outputs": [],
      "payable": false,
      "stateMutability": "nonpayable",
      "type": "function"
    }
  ],
  "bytecode": "0x60806040523480156200001157600080fd5b506200003d6000808111156200002357fe5b6000808111156200003057fe5b336200004360201b60201c565b62000408565b82600060028111156200005257fe5b60008083815260200190815260200160002060010160009054906101000a900460ff1660028111156200008157fe5b14620000c4576040517f08c379a0000000000000000000000000000000000000000000000000000000008152600401620000bb90620003b3565b60405180910390fd5b6000806000868152602001908152602001600020905060018160010160006101000a81548160ff02191690836002811115620000fc57fe5b0217905550838160000181905550620001278382600201620001af60201b62001b721790919060201c565b600060028111156200013557fe5b60008086815260200190815260200160002060010160009054906101000a900460ff1660028111156200016457fe5b1415620001a8576040517f08c379a00000000000000000000000000000000000000000000000000000000081526004016200019f9062000391565b60405180910390fd5b5050505050565b620001c18282620001c560201b60201c565b5050565b600073ffffffffffffffffffffffffffffffffffffffff168173ffffffffffffffffffffffffffffffffffffffff16141562000238576040517f08c379a00000000000000000000000000000000000000000000000000000000081526004016200022f90620003d5565b60405180910390fd5b808260000160006101000a81548173ffffffffffffffffffffffffffffffffffffffff021916908373ffffffffffffffffffffffffffffffffffffffff1602179055505050565b60006200028e603c83620003f7565b91507f417474656d7074656420746f2075736520616e20696e76616c696420726f6c6560008301527f20746f206d616e61676520616e206578636c757369766520726f6c65000000006020830152604082019050919050565b6000620002f6601e83620003f7565b91507f43616e6e6f74207573652061207072652d6578697374696e6720726f6c6500006000830152602082019050919050565b600062000338602383620003f7565b91507f43616e6e6f742073657420616e206578636c757369766520726f6c6520746f2060008301527f30783000000000000000000000000000000000000000000000000000000000006020830152604082019050919050565b60006020820190508181036000830152620003ac816200027f565b9050919050565b60006020820190508181036000830152620003ce81620002e7565b9050919050565b60006020820190508181036000830152620003f08162000329565b9050919050565b600082825260208201905092915050565b611bc380620004186000396000f3fe6080604052600436106100dd5760003560e01c80637684e0001161007f578063ab3545e511610059578063ab3545e5146102b9578063bd1f4b52146102f6578063cd3a9b241461031f578063d97c05be14610329576100dd565b80637684e0001461022a5780637cdc1cb9146102535780637e7e591d14610290576100dd565b80635b97aadd116100bb5780635b97aadd1461015d5780636be7658b1461019a57806374201feb146101c357806374d0a67614610201576100dd565b80632e1a7d4d146100e257806334a9eff41461010b5780634933a88714610134575b600080fd5b3480156100ee57600080fd5b50610109600480360361010491908101906113e6565b610352565b005b34801561011757600080fd5b50610132600480360361012d91908101906113bd565b6103e9565b005b34801561014057600080fd5b5061015b600480360361015691908101906112f3565b610452565b005b34801561016957600080fd5b50610184600480360361017f91908101906112f3565b610590565b6040516101919190611a2d565b60405180910390f35b3480156101a657600080fd5b506101c160048036036101bc9190810190611438565b6105f3565b005b3480156101cf57600080fd5b506101ea60048036036101e59190810190611474565b6106fa565b6040516101f8929190611a48565b60405180910390f35b34801561020d57600080fd5b5061022860048036036102239190810190611438565b6107df565b005b34801561023657600080fd5b50610251600480360361024c91908101906113bd565b6108e6565b005b34801561025f57600080fd5b5061027a60048036036102759190810190611438565b6109a3565b60405161028791906118f2565b60405180910390f35b34801561029c57600080fd5b506102b760048036036102b2919081019061131c565b610a9e565b005b3480156102c557600080fd5b506102e060048036036102db91908101906113e6565b610b45565b6040516102ed919061184e565b60405180910390f35b34801561030257600080fd5b5061031d60048036036103189190810190611358565b610be8565b005b610327610cd5565b005b34801561033557600080fd5b50610350600480360361034b9190810190611438565b610ce4565b005b60015461035f81336109a3565b61039e576040517f08c379a00000000000000000000000000000000000000000000000000000000081526004016103959061198d565b60405180910390fd5b3373ffffffffffffffffffffffffffffffffffffffff166108fc839081150290604051600060405180830381858888f193505050501580156103e4573d6000803e3d6000fd5b505050565b6000808111156103f557fe5b6103ff81336109a3565b61043e576040517f08c379a00000000000000000000000000000000000000000000000000000000081526004016104359061198d565b60405180910390fd5b816003600082015181600001559050505050565b600081905060008173ffffffffffffffffffffffffffffffffffffffff1663dd62ed3e33306040518363ffffffff1660e01b8152600401610494929190611869565b60206040518083038186803b1580156104ac57600080fd5b505afa1580156104c0573d6000803e3d6000fd5b505050506040513d601f19601f820116820180604052506104e4919081019061140f565b9050600081116104f357600080fd5b8173ffffffffffffffffffffffffffffffffffffffff166323b872dd3330846040518463ffffffff1660e01b815260040161053093929190611892565b602060405180830381600087803b15801561054a57600080fd5b505af115801561055e573d6000803e3d6000fd5b505050506040513d601f19601f820116820180604052506105829190810190611394565b61058b57600080fd5b505050565b610598611239565b600460008373ffffffffffffffffffffffffffffffffffffffff1673ffffffffffffffffffffffffffffffffffffffff1681526020019081526020016000206040518060200160405290816000820154815250509050919050565b8160028081111561060057fe5b60008083815260200190815260200160002060010160009054906101000a900460ff16600281111561062e57fe5b1461066e576040517f08c379a00000000000000000000000000000000000000000000000000000000081526004016106659061196d565b60405180910390fd5b8261068e60008083815260200190815260200160002060000154336109a3565b6106cd576040517f08c379a00000000000000000000000000000000000000000000000000000000081526004016106c4906119ed565b60405180910390fd5b6106f483600080878152602001908152602001600020600301610dec90919063ffffffff16565b50505050565b610702611239565b61070a611239565b600061071f8686610e4a90919063ffffffff16565b905061076c600260405180602001604052908160008201548152505061075e838780360361075091908101906113bd565b610ea090919063ffffffff16565b610ed590919063ffffffff16565b92506107ce6107af61078a62093a8084610f1f90919063ffffffff16565b6003604051806020016040529081600082015481525050610ea090919063ffffffff16565b858036036107c091908101906113bd565b610ed590919063ffffffff16565b915082829250925050935093915050565b816002808111156107ec57fe5b60008083815260200190815260200160002060010160009054906101000a900460ff16600281111561081a57fe5b1461085a576040517f08c379a00000000000000000000000000000000000000000000000000000000081526004016108519061196d565b60405180910390fd5b8261087a60008083815260200190815260200160002060000154336109a3565b6108b9576040517f08c379a00000000000000000000000000000000000000000000000000000000081526004016108b0906119ed565b60405180910390fd5b6108e083600080878152602001908152602001600020600301610f7b90919063ffffffff16565b50505050565b6000808111156108f257fe5b6108fc81336109a3565b61093b576040517f08c379a00000000000000000000000000000000000000000000000000000000081526004016109329061198d565b60405180910390fd5b61094f600183610fd990919063ffffffff16565b61095857600080fd5b816002600082015181600001559050507fce0ae2865efa0c92fb74c1e33121795dc95cc78d86412a5b8f20be139857f386826040516109979190611a2d565b60405180910390a15050565b6000806000808581526020019081526020016000209050600160028111156109c757fe5b8160010160009054906101000a900460ff1660028111156109e457fe5b1415610a0857610a008382600201610ff690919063ffffffff16565b915050610a98565b600280811115610a1457fe5b8160010160009054906101000a900460ff166002811115610a3157fe5b1415610a5557610a4d838260030161105390919063ffffffff16565b915050610a98565b6000610a96576040517f08c379a0000000000000000000000000000000000000000000000000000000008152600401610a8d90611a0d565b60405180910390fd5b505b92915050565b600080811115610aaa57fe5b610ab481336109a3565b610af3576040517f08c379a0000000000000000000000000000000000000000000000000000000008152600401610aea9061198d565b60405180910390fd5b81600460008573ffffffffffffffffffffffffffffffffffffffff1673ffffffffffffffffffffffffffffffffffffffff16815260200190815260200160002060008201518160000155905050505050565b60008160016002811115610b5557fe5b60008083815260200190815260200160002060010160009054906101000a900460ff166002811115610b8357fe5b14610bc3576040517f08c379a0000000000000000000000000000000000000000000000000000000008152600401610bba9061190d565b60405180910390fd5b610be06000808581526020019081526020016000206002016110ac565b915050919050565b600154610bf581336109a3565b610c34576040517f08c379a0000000000000000000000000000000000000000000000000000000008152600401610c2b9061198d565b60405180910390fd5b60008390508073ffffffffffffffffffffffffffffffffffffffff1663a9059cbb33856040518363ffffffff1660e01b8152600401610c749291906118c9565b602060405180830381600087803b158015610c8e57600080fd5b505af1158015610ca2573d6000803e3d6000fd5b505050506040513d601f19601f82011682018060405250610cc69190810190611394565b610ccf57600080fd5b50505050565b60003411610ce257600080fd5b565b8160016002811115610cf257fe5b60008083815260200190815260200160002060010160009054906101000a900460ff166002811115610d2057fe5b14610d60576040517f08c379a0000000000000000000000000000000000000000000000000000000008152600401610d579061190d565b60405180910390fd5b82610d8060008083815260200190815260200160002060000154336109a3565b610dbf576040517f08c379a0000000000000000000000000000000000000000000000000000000008152600401610db6906119ed565b60405180910390fd5b610de6836000808781526020019081526020016000206002016110da90919063ffffffff16565b50505050565b60008260000160008373ffffffffffffffffffffffffffffffffffffffff1673ffffffffffffffffffffffffffffffffffffffff16815260200190815260200160002060006101000a81548160ff0219169083151502179055505050565b600082821115610e8f576040517f08c379a0000000000000000000000000000000000000000000000000000000008152600401610e869061192d565b60405180910390fd5b600082840390508091505092915050565b610ea8611239565b6040518060200160405280610eca84866000015161119190919063ffffffff16565b815250905092915050565b610edd611239565b6040518060200160405280670de0b6b3a7640000610f0c8560000151876000015161119190919063ffffffff16565b81610f1357fe5b04815250905092915050565b6000808211610f63576040517f08c379a0000000000000000000000000000000000000000000000000000000008152600401610f5a9061194d565b60405180910390fd5b6000828481610f6e57fe5b0490508091505092915050565b60018260000160008373ffffffffffffffffffffffffffffffffffffffff1673ffffffffffffffffffffffffffffffffffffffff16815260200190815260200160002060006101000a81548160ff0219169083151502179055505050565b6000610fe482611201565b60000151836000015110905092915050565b60008173ffffffffffffffffffffffffffffffffffffffff168360000160009054906101000a900473ffffffffffffffffffffffffffffffffffffffff1673ffffffffffffffffffffffffffffffffffffffff1614905092915050565b60008260000160008373ffffffffffffffffffffffffffffffffffffffff1673ffffffffffffffffffffffffffffffffffffffff16815260200190815260200160002060009054906101000a900460ff16905092915050565b60008160000160009054906101000a900473ffffffffffffffffffffffffffffffffffffffff169050919050565b600073ffffffffffffffffffffffffffffffffffffffff168173ffffffffffffffffffffffffffffffffffffffff16141561114a576040517f08c379a0000000000000000000000000000000000000000000000000000000008152600401611141906119cd565b60405180910390fd5b808260000160006101000a81548173ffffffffffffffffffffffffffffffffffffffff021916908373ffffffffffffffffffffffffffffffffffffffff1602179055505050565b6000808314156111a457600090506111fb565b60008284029050828482816111b557fe5b04146111f6576040517f08c379a00000000000000000000000000000000000000000000000000000000081526004016111ed906119ad565b60405180910390fd5b809150505b92915050565b611209611239565b604051806020016040528061122f670de0b6b3a76400008561119190919063ffffffff16565b8152509050919050565b6040518060200160405280600081525090565b60008135905061125b81611b2d565b92915050565b60008151905061127081611b44565b92915050565b60006020828403121561128857600080fd5b81905092915050565b6000602082840312156112a357600080fd5b6112ad6020611a71565b905060006112bd848285016112c9565b60008301525092915050565b6000813590506112d881611b5b565b92915050565b6000815190506112ed81611b5b565b92915050565b60006020828403121561130557600080fd5b60006113138482850161124c565b91505092915050565b6000806040838503121561132f57600080fd5b600061133d8582860161124c565b925050602061134e85828601611291565b9150509250929050565b6000806040838503121561136b57600080fd5b60006113798582860161124c565b925050602061138a858286016112c9565b9150509250929050565b6000602082840312156113a657600080fd5b60006113b484828501611261565b91505092915050565b6000602082840312156113cf57600080fd5b60006113dd84828501611291565b91505092915050565b6000602082840312156113f857600080fd5b6000611406848285016112c9565b91505092915050565b60006020828403121561142157600080fd5b600061142f848285016112de565b91505092915050565b6000806040838503121561144b57600080fd5b6000611459858286016112c9565b925050602061146a8582860161124c565b9150509250929050565b60008060006060848603121561148957600080fd5b6000611497868287016112c9565b93505060206114a8868287016112c9565b92505060406114b986828701611276565b9150509250925092565b6114cc81611af7565b82525050565b6114db81611aaf565b82525050565b6114ea81611ac1565b82525050565b60006114fd602f83611a9e565b91507f4d7573742062652063616c6c6564206f6e20616e20696e697469616c697a656460008301527f204578636c757369766520726f6c6500000000000000000000000000000000006020830152604082019050919050565b6000611563601e83611a9e565b91507f536166654d6174683a207375627472616374696f6e206f766572666c6f7700006000830152602082019050919050565b60006115a3601a83611a9e565b91507f536166654d6174683a206469766973696f6e206279207a65726f0000000000006000830152602082019050919050565b60006115e3602c83611a9e565b91507f4d7573742062652063616c6c6564206f6e20616e20696e697469616c697a656460008301527f2053686172656420726f6c6500000000000000000000000000000000000000006020830152604082019050919050565b6000611649602283611a9e565b91507f53656e64657220646f6573206e6f7420686f6c6420726571756972656420726f60008301527f6c650000000000000000000000000000000000000000000000000000000000006020830152604082019050919050565b60006116af602183611a9e565b91507f536166654d6174683a206d756c7469706c69636174696f6e206f766572666c6f60008301527f77000000000000000000000000000000000000000000000000000000000000006020830152604082019050919050565b6000611715602383611a9e565b91507f43616e6e6f742073657420616e206578636c757369766520726f6c6520746f2060008301527f30783000000000000000000000000000000000000000000000000000000000006020830152604082019050919050565b600061177b602483611a9e565b91507f43616e206f6e6c792062652063616c6c6564206279206120726f6c65206d616e60008301527f61676572000000000000000000000000000000000000000000000000000000006020830152604082019050919050565b60006117e1600e83611a9e565b91507f496e76616c696420726f6c6549640000000000000000000000000000000000006000830152602082019050919050565b60208201600082015161182a6000850182611830565b50505050565b61183981611aed565b82525050565b61184881611aed565b82525050565b600060208201905061186360008301846114d2565b92915050565b600060408201905061187e60008301856114c3565b61188b60208301846114d2565b9392505050565b60006060820190506118a760008301866114c3565b6118b460208301856114d2565b6118c1604083018461183f565b949350505050565b60006040820190506118de60008301856114c3565b6118eb602083018461183f565b9392505050565b600060208201905061190760008301846114e1565b92915050565b60006020820190508181036000830152611926816114f0565b9050919050565b6000602082019050818103600083015261194681611556565b9050919050565b6000602082019050818103600083015261196681611596565b9050919050565b60006020820190508181036000830152611986816115d6565b9050919050565b600060208201905081810360008301526119a68161163c565b9050919050565b600060208201905081810360008301526119c6816116a2565b9050919050565b600060208201905081810360008301526119e681611708565b9050919050565b60006020820190508181036000830152611a068161176e565b9050919050565b60006020820190508181036000830152611a26816117d4565b9050919050565b6000602082019050611a426000830184611814565b92915050565b6000604082019050611a5d6000830185611814565b611a6a6020830184611814565b9392505050565b6000604051905081810181811067ffffffffffffffff82111715611a9457600080fd5b8060405250919050565b600082825260208201905092915050565b6000611aba82611acd565b9050919050565b60008115159050919050565b600073ffffffffffffffffffffffffffffffffffffffff82169050919050565b6000819050919050565b6000611b0282611b09565b9050919050565b6000611b1482611b1b565b9050919050565b6000611b2682611acd565b9050919050565b611b3681611aaf565b8114611b4157600080fd5b50565b611b4d81611ac1565b8114611b5857600080fd5b50565b611b6481611aed565b8114611b6f57600080fd5b50565b611b7c82826110da565b505056fea365627a7a72315820ed2dcfcbfc86c8666cb47a92bfe659dd4ae288a02435e0a93b71ae6334aafe396c6578706572696d656e74616cf564736f6c634300050d0040",
  "source": "pragma solidity ^0.5.0;\npragma experimental ABIEncoderV2;\n\nimport \"openzeppelin-solidity/contracts/math/SafeMath.sol\";\nimport \"./StoreInterface.sol\";\nimport \"./Withdrawable.sol\";\nimport \"./FixedPoint.sol\";\nimport \"./MultiRole.sol\";\n\n\n/** \n * @title An implementation of StoreInterface that can accept Oracle fees in ETH or any arbitrary ERC20 token.\n */\ncontract Store is StoreInterface, MultiRole, Withdrawable {\n\n    using SafeMath for uint;\n    using FixedPoint for FixedPoint.Unsigned;\n    using FixedPoint for uint;\n\n    enum Roles {\n        Governance\n    }\n\n    FixedPoint.Unsigned private fixedOracleFeePerSecond; // Percentage of 1 E.g., .1 is 10% Oracle fee.\n\n    FixedPoint.Unsigned private weeklyDelayFee; // Percentage of 1 E.g., .1 is 10% weekly delay fee.\n    mapping(address => FixedPoint.Unsigned) private finalFees;\n    uint private constant SECONDS_PER_WEEK = 604800;\n\n    event NewFixedOracleFeePerSecond(FixedPoint.Unsigned newOracleFee);\n\n    constructor() public {\n        _createExclusiveRole(uint(Roles.Governance), uint(Roles.Governance), msg.sender);\n    }\n\n    function payOracleFees() external payable {\n        require(msg.value > 0);\n    }\n\n    function payOracleFeesErc20(address erc20Address) external {\n        IERC20 erc20 = IERC20(erc20Address);\n        uint authorizedAmount = erc20.allowance(msg.sender, address(this));\n        require(authorizedAmount > 0);\n        require(erc20.transferFrom(msg.sender, address(this), authorizedAmount));\n    }\n\n    function computeRegularFee(uint startTime, uint endTime, FixedPoint.Unsigned calldata pfc) \n        external \n        view \n        returns (FixedPoint.Unsigned memory regularFee, FixedPoint.Unsigned memory latePenalty) \n    {\n        uint timeDiff = endTime.sub(startTime);\n\n        // Multiply by the unscaled `timeDiff` first, to get more accurate results.\n        regularFee = pfc.mul(timeDiff).mul(fixedOracleFeePerSecond);\n        // `weeklyDelayFee` is already scaled up.\n        latePenalty = pfc.mul(weeklyDelayFee.mul(timeDiff.div(SECONDS_PER_WEEK)));\n\n        return (regularFee, latePenalty);\n    }\n\n    function computeFinalFee(address currency) \n        external \n        view \n        returns (FixedPoint.Unsigned memory finalFee) \n    {\n        finalFee = finalFees[currency];\n    }\n\n    /**\n     * @dev Sets a new oracle fee per second\n     */ \n    function setFixedOracleFeePerSecond(FixedPoint.Unsigned memory newOracleFee) \n        public \n        onlyRoleHolder(uint(Roles.Governance)) \n    {\n        // Oracle fees at or over 100% don't make sense.\n        require(newOracleFee.isLessThan(1));\n        fixedOracleFeePerSecond = newOracleFee;\n        emit NewFixedOracleFeePerSecond(newOracleFee);\n    }\n\n    /**\n     * @dev Sets a new weekly delay fee\n     */ \n    function setWeeklyDelayFee(FixedPoint.Unsigned memory newWeeklyDelayFee) \n        public \n        onlyRoleHolder(uint(Roles.Governance)) \n    {\n        weeklyDelayFee = newWeeklyDelayFee;\n    }\n\n    /**\n     * @dev Sets a new final fee for a particular currency\n     */ \n    function setFinalFee(address currency, FixedPoint.Unsigned memory finalFee) \n        public \n        onlyRoleHolder(uint(Roles.Governance))\n    {\n        finalFees[currency] = finalFee;\n    }\n}\n",
  "sourcePath": "/home/mattczernik/Workspace/uma/protocol/core/contracts/Store.sol",
  "compiler": {
    "name": "solc",
    "version": "0.5.13+commit.5b0b510c.Emscripten.clang"
  },
  "schemaVersion": "3.0.16",
  "updatedAt": "2019-11-30T00:32:29.020Z",
  "devdoc": {
    "methods": {
      "addMember(uint256,address)": {
        "details": "Reverts if `roleId` does not represent an initialized, shared role or if the caller is not a member of the managing role for `roleId`."
      },
      "getMember(uint256)": {
        "details": "Reverts if `roleId` does not represent an initialized, exclusive role."
      },
      "holdsRole(uint256,address)": {
        "details": "Reverts if roleId does not correspond to an initialized role."
      },
      "removeMember(uint256,address)": {
        "details": "Reverts if `roleId` does not represent an initialized, shared role or if the caller is not a member of the managing role for `roleId`."
      },
      "resetMember(uint256,address)": {
        "details": "Reverts if the caller is not a member of the managing role for `roleId` or if `roleId` is not an initialized, exclusive role."
      },
      "setFinalFee(address,(uint256))": {
        "details": "Sets a new final fee for a particular currency"
      },
      "setFixedOracleFeePerSecond((uint256))": {
        "details": "Sets a new oracle fee per second"
      },
      "setWeeklyDelayFee((uint256))": {
        "details": "Sets a new weekly delay fee"
      }
    },
    "title": "An implementation of StoreInterface that can accept Oracle fees in ETH or any arbitrary ERC20 token."
  },
  "userdoc": {
    "methods": {
      "addMember(uint256,address)": {
        "notice": "Adds `newMember` to the shared role, `roleId`."
      },
      "getMember(uint256)": {
        "notice": "Gets the current holder of the exclusive role, `roleId`."
      },
      "holdsRole(uint256,address)": {
        "notice": "Whether `memberToCheck` is a member of roleId."
      },
      "removeMember(uint256,address)": {
        "notice": "Removes `memberToRemove` from the shared role, `roleId`."
      },
      "resetMember(uint256,address)": {
        "notice": "Changes the exclusive role holder of `roleId` to `newMember`."
      },
      "withdraw(uint256)": {
        "notice": "Withdraws ETH from the contract."
      },
      "withdrawErc20(address,uint256)": {
        "notice": "Withdraws ERC20 tokens from the contract."
      }
    }
  }
}